{"abi":[{"type":"constructor","inputs":[{"name":"_usdc","type":"address","internalType":"address"},{"name":"_usdt","type":"address","internalType":"address"},{"name":"_superlendPool","type":"address","internalType":"address"},{"name":"_uniswapRouter","type":"address","internalType":"address"},{"name":"_uniswapQuoter","type":"address","internalType":"address"},{"name":"_iguanaRouter","type":"address","internalType":"address"},{"name":"_iguanaQuoter","type":"address","internalType":"address"}],"stateMutability":"nonpayable"},{"type":"function","name":"UPGRADE_INTERFACE_VERSION","inputs":[],"outputs":[{"name":"","type":"string","internalType":"string"}],"stateMutability":"view"},{"type":"function","name":"USDC","inputs":[],"outputs":[{"name":"","type":"address","internalType":"address"}],"stateMutability":"view"},{"type":"function","name":"USDT","inputs":[],"outputs":[{"name":"","type":"address","internalType":"address"}],"stateMutability":"view"},{"type":"function","name":"allowance","inputs":[{"name":"owner","type":"address","internalType":"address"},{"name":"spender","type":"address","internalType":"address"}],"outputs":[{"name":"","type":"uint256","internalType":"uint256"}],"stateMutability":"view"},{"type":"function","name":"approve","inputs":[{"name":"spender","type":"address","internalType":"address"},{"name":"value","type":"uint256","internalType":"uint256"}],"outputs":[{"name":"","type":"bool","internalType":"bool"}],"stateMutability":"nonpayable"},{"type":"function","name":"asset","inputs":[],"outputs":[{"name":"","type":"address","internalType":"address"}],"stateMutability":"view"},{"type":"function","name":"balanceOf","inputs":[{"name":"account","type":"address","internalType":"address"}],"outputs":[{"name":"","type":"uint256","internalType":"uint256"}],"stateMutability":"view"},{"type":"function","name":"canRebalance","inputs":[],"outputs":[{"name":"canRebal","type":"bool","internalType":"bool"},{"name":"reason","type":"string","internalType":"string"},{"name":"betterAsset","type":"address","internalType":"address"},{"name":"currentAPY","type":"uint256","internalType":"uint256"},{"name":"betterAPY","type":"uint256","internalType":"uint256"}],"stateMutability":"view"},{"type":"function","name":"checkRebalancingProfitability","inputs":[],"outputs":[{"name":"isProfitable","type":"bool","internalType":"bool"},{"name":"reason","type":"string","internalType":"string"},{"name":"expectedSlippage","type":"uint256","internalType":"uint256"},{"name":"maxAllowedSlippage","type":"uint256","internalType":"uint256"}],"stateMutability":"view"},{"type":"function","name":"claimPerformanceFees","inputs":[],"outputs":[],"stateMutability":"nonpayable"},{"type":"function","name":"convertToAssets","inputs":[{"name":"shares","type":"uint256","internalType":"uint256"}],"outputs":[{"name":"","type":"uint256","internalType":"uint256"}],"stateMutability":"view"},{"type":"function","name":"convertToShares","inputs":[{"name":"assets","type":"uint256","internalType":"uint256"}],"outputs":[{"name":"","type":"uint256","internalType":"uint256"}],"stateMutability":"view"},{"type":"function","name":"currentAllocation","inputs":[],"outputs":[{"name":"","type":"address","internalType":"address"}],"stateMutability":"view"},{"type":"function","name":"decimals","inputs":[],"outputs":[{"name":"","type":"uint8","internalType":"uint8"}],"stateMutability":"view"},{"type":"function","name":"deposit","inputs":[{"name":"assets","type":"uint256","internalType":"uint256"},{"name":"receiver","type":"address","internalType":"address"}],"outputs":[{"name":"","type":"uint256","internalType":"uint256"}],"stateMutability":"nonpayable"},{"type":"function","name":"emergencyPause","inputs":[],"outputs":[],"stateMutability":"nonpayable"},{"type":"function","name":"getBestSwapRoute","inputs":[{"name":"tokenIn","type":"address","internalType":"address"},{"name":"tokenOut","type":"address","internalType":"address"},{"name":"amountIn","type":"uint256","internalType":"uint256"}],"outputs":[{"name":"","type":"tuple","internalType":"struct SuperlinkUSDVault.RouteInfo","components":[{"name":"router","type":"address","internalType":"address"},{"name":"expectedOut","type":"uint256","internalType":"uint256"},{"name":"routeData","type":"bytes","internalType":"bytes"},{"name":"fee","type":"uint24","internalType":"uint24"}]}],"stateMutability":"nonpayable"},{"type":"function","name":"iguanaQuoter","inputs":[],"outputs":[{"name":"","type":"address","internalType":"contract IIguanaDEXQuoter"}],"stateMutability":"view"},{"type":"function","name":"iguanaRouter","inputs":[],"outputs":[{"name":"","type":"address","internalType":"contract IIguanaDEXRouter"}],"stateMutability":"view"},{"type":"function","name":"initialize","inputs":[],"outputs":[],"stateMutability":"nonpayable"},{"type":"function","name":"lastWithdrawalTime","inputs":[{"name":"user","type":"address","internalType":"address"}],"outputs":[{"name":"","type":"uint256","internalType":"uint256"}],"stateMutability":"view"},{"type":"function","name":"maxDeposit","inputs":[{"name":"","type":"address","internalType":"address"}],"outputs":[{"name":"","type":"uint256","internalType":"uint256"}],"stateMutability":"view"},{"type":"function","name":"maxMint","inputs":[{"name":"","type":"address","internalType":"address"}],"outputs":[{"name":"","type":"uint256","internalType":"uint256"}],"stateMutability":"view"},{"type":"function","name":"maxRedeem","inputs":[{"name":"owner","type":"address","internalType":"address"}],"outputs":[{"name":"","type":"uint256","internalType":"uint256"}],"stateMutability":"view"},{"type":"function","name":"maxWithdraw","inputs":[{"name":"owner","type":"address","internalType":"address"}],"outputs":[{"name":"","type":"uint256","internalType":"uint256"}],"stateMutability":"view"},{"type":"function","name":"mint","inputs":[{"name":"shares","type":"uint256","internalType":"uint256"},{"name":"receiver","type":"address","internalType":"address"}],"outputs":[{"name":"","type":"uint256","internalType":"uint256"}],"stateMutability":"nonpayable"},{"type":"function","name":"name","inputs":[],"outputs":[{"name":"","type":"string","internalType":"string"}],"stateMutability":"view"},{"type":"function","name":"owner","inputs":[],"outputs":[{"name":"","type":"address","internalType":"address"}],"stateMutability":"view"},{"type":"function","name":"pause","inputs":[],"outputs":[],"stateMutability":"nonpayable"},{"type":"function","name":"paused","inputs":[],"outputs":[{"name":"","type":"bool","internalType":"bool"}],"stateMutability":"view"},{"type":"function","name":"previewDeposit","inputs":[{"name":"assets","type":"uint256","internalType":"uint256"}],"outputs":[{"name":"","type":"uint256","internalType":"uint256"}],"stateMutability":"view"},{"type":"function","name":"previewMint","inputs":[{"name":"shares","type":"uint256","internalType":"uint256"}],"outputs":[{"name":"","type":"uint256","internalType":"uint256"}],"stateMutability":"view"},{"type":"function","name":"previewRedeem","inputs":[{"name":"shares","type":"uint256","internalType":"uint256"}],"outputs":[{"name":"","type":"uint256","internalType":"uint256"}],"stateMutability":"view"},{"type":"function","name":"previewWithdraw","inputs":[{"name":"assets","type":"uint256","internalType":"uint256"}],"outputs":[{"name":"","type":"uint256","internalType":"uint256"}],"stateMutability":"view"},{"type":"function","name":"proxiableUUID","inputs":[],"outputs":[{"name":"","type":"bytes32","internalType":"bytes32"}],"stateMutability":"view"},{"type":"function","name":"rebalance","inputs":[],"outputs":[],"stateMutability":"nonpayable"},{"type":"function","name":"redeem","inputs":[{"name":"shares","type":"uint256","internalType":"uint256"},{"name":"receiver","type":"address","internalType":"address"},{"name":"owner","type":"address","internalType":"address"}],"outputs":[{"name":"","type":"uint256","internalType":"uint256"}],"stateMutability":"nonpayable"},{"type":"function","name":"renounceOwnership","inputs":[],"outputs":[],"stateMutability":"nonpayable"},{"type":"function","name":"setTvlCap","inputs":[{"name":"newCap","type":"uint256","internalType":"uint256"}],"outputs":[],"stateMutability":"nonpayable"},{"type":"function","name":"superlendPool","inputs":[],"outputs":[{"name":"","type":"address","internalType":"contract ISuperlendPool"}],"stateMutability":"view"},{"type":"function","name":"symbol","inputs":[],"outputs":[{"name":"","type":"string","internalType":"string"}],"stateMutability":"view"},{"type":"function","name":"totalAssets","inputs":[],"outputs":[{"name":"","type":"uint256","internalType":"uint256"}],"stateMutability":"view"},{"type":"function","name":"totalPerformanceFeesEarned","inputs":[],"outputs":[{"name":"","type":"uint256","internalType":"uint256"}],"stateMutability":"view"},{"type":"function","name":"totalPrincipal","inputs":[],"outputs":[{"name":"","type":"uint256","internalType":"uint256"}],"stateMutability":"view"},{"type":"function","name":"totalSupply","inputs":[],"outputs":[{"name":"","type":"uint256","internalType":"uint256"}],"stateMutability":"view"},{"type":"function","name":"transfer","inputs":[{"name":"to","type":"address","internalType":"address"},{"name":"value","type":"uint256","internalType":"uint256"}],"outputs":[{"name":"","type":"bool","internalType":"bool"}],"stateMutability":"nonpayable"},{"type":"function","name":"transferFrom","inputs":[{"name":"from","type":"address","internalType":"address"},{"name":"to","type":"address","internalType":"address"},{"name":"value","type":"uint256","internalType":"uint256"}],"outputs":[{"name":"","type":"bool","internalType":"bool"}],"stateMutability":"nonpayable"},{"type":"function","name":"transferOwnership","inputs":[{"name":"newOwner","type":"address","internalType":"address"}],"outputs":[],"stateMutability":"nonpayable"},{"type":"function","name":"tvlCap","inputs":[],"outputs":[{"name":"","type":"uint256","internalType":"uint256"}],"stateMutability":"view"},{"type":"function","name":"uniswapQuoter","inputs":[],"outputs":[{"name":"","type":"address","internalType":"contract IQuoterV2"}],"stateMutability":"view"},{"type":"function","name":"uniswapRouter","inputs":[],"outputs":[{"name":"","type":"address","internalType":"contract ISwapRouter02"}],"stateMutability":"view"},{"type":"function","name":"unpause","inputs":[],"outputs":[],"stateMutability":"nonpayable"},{"type":"function","name":"upgradeToAndCall","inputs":[{"name":"newImplementation","type":"address","internalType":"address"},{"name":"data","type":"bytes","internalType":"bytes"}],"outputs":[],"stateMutability":"payable"},{"type":"function","name":"userDepositTime","inputs":[{"name":"","type":"address","internalType":"address"}],"outputs":[{"name":"","type":"uint256","internalType":"uint256"}],"stateMutability":"view"},{"type":"function","name":"userPrincipal","inputs":[{"name":"","type":"address","internalType":"address"}],"outputs":[{"name":"","type":"uint256","internalType":"uint256"}],"stateMutability":"view"},{"type":"function","name":"withdraw","inputs":[{"name":"assets","type":"uint256","internalType":"uint256"},{"name":"receiver","type":"address","internalType":"address"},{"name":"owner","type":"address","internalType":"address"}],"outputs":[{"name":"","type":"uint256","internalType":"uint256"}],"stateMutability":"nonpayable"},{"type":"event","name":"Approval","inputs":[{"name":"owner","type":"address","indexed":true,"internalType":"address"},{"name":"spender","type":"address","indexed":true,"internalType":"address"},{"name":"value","type":"uint256","indexed":false,"internalType":"uint256"}],"anonymous":false},{"type":"event","name":"Deposit","inputs":[{"name":"sender","type":"address","indexed":true,"internalType":"address"},{"name":"owner","type":"address","indexed":true,"internalType":"address"},{"name":"assets","type":"uint256","indexed":false,"internalType":"uint256"},{"name":"shares","type":"uint256","indexed":false,"internalType":"uint256"}],"anonymous":false},{"type":"event","name":"EmergencyPaused","inputs":[],"anonymous":false},{"type":"event","name":"FeesClaimed","inputs":[{"name":"amount","type":"uint256","indexed":false,"internalType":"uint256"}],"anonymous":false},{"type":"event","name":"Initialized","inputs":[{"name":"version","type":"uint64","indexed":false,"internalType":"uint64"}],"anonymous":false},{"type":"event","name":"OwnershipTransferred","inputs":[{"name":"previousOwner","type":"address","indexed":true,"internalType":"address"},{"name":"newOwner","type":"address","indexed":true,"internalType":"address"}],"anonymous":false},{"type":"event","name":"Rebalanced","inputs":[{"name":"from","type":"address","indexed":true,"internalType":"address"},{"name":"to","type":"address","indexed":true,"internalType":"address"},{"name":"amount","type":"uint256","indexed":false,"internalType":"uint256"}],"anonymous":false},{"type":"event","name":"RouteSelected","inputs":[{"name":"router","type":"address","indexed":true,"internalType":"address"},{"name":"fee","type":"uint24","indexed":false,"internalType":"uint24"},{"name":"amountIn","type":"uint256","indexed":false,"internalType":"uint256"},{"name":"amountOut","type":"uint256","indexed":false,"internalType":"uint256"}],"anonymous":false},{"type":"event","name":"Transfer","inputs":[{"name":"from","type":"address","indexed":true,"internalType":"address"},{"name":"to","type":"address","indexed":true,"internalType":"address"},{"name":"value","type":"uint256","indexed":false,"internalType":"uint256"}],"anonymous":false},{"type":"event","name":"TvlCapUpdated","inputs":[{"name":"newCap","type":"uint256","indexed":false,"internalType":"uint256"}],"anonymous":false},{"type":"event","name":"Unpaused","inputs":[],"anonymous":false},{"type":"event","name":"Upgraded","inputs":[{"name":"implementation","type":"address","indexed":true,"internalType":"address"}],"anonymous":false},{"type":"event","name":"Withdraw","inputs":[{"name":"sender","type":"address","indexed":true,"internalType":"address"},{"name":"receiver","type":"address","indexed":true,"internalType":"address"},{"name":"owner","type":"address","indexed":true,"internalType":"address"},{"name":"assets","type":"uint256","indexed":false,"internalType":"uint256"},{"name":"shares","type":"uint256","indexed":false,"internalType":"uint256"}],"anonymous":false},{"type":"error","name":"AddressEmptyCode","inputs":[{"name":"target","type":"address","internalType":"address"}]},{"type":"error","name":"ContractNotPaused","inputs":[]},{"type":"error","name":"ContractPaused","inputs":[]},{"type":"error","name":"ERC1967InvalidImplementation","inputs":[{"name":"implementation","type":"address","internalType":"address"}]},{"type":"error","name":"ERC1967NonPayable","inputs":[]},{"type":"error","name":"ERC20InsufficientAllowance","inputs":[{"name":"spender","type":"address","internalType":"address"},{"name":"allowance","type":"uint256","internalType":"uint256"},{"name":"needed","type":"uint256","internalType":"uint256"}]},{"type":"error","name":"ERC20InsufficientBalance","inputs":[{"name":"sender","type":"address","internalType":"address"},{"name":"balance","type":"uint256","internalType":"uint256"},{"name":"needed","type":"uint256","internalType":"uint256"}]},{"type":"error","name":"ERC20InvalidApprover","inputs":[{"name":"approver","type":"address","internalType":"address"}]},{"type":"error","name":"ERC20InvalidReceiver","inputs":[{"name":"receiver","type":"address","internalType":"address"}]},{"type":"error","name":"ERC20InvalidSender","inputs":[{"name":"sender","type":"address","internalType":"address"}]},{"type":"error","name":"ERC20InvalidSpender","inputs":[{"name":"spender","type":"address","internalType":"address"}]},{"type":"error","name":"ERC4626ExceededMaxDeposit","inputs":[{"name":"receiver","type":"address","internalType":"address"},{"name":"assets","type":"uint256","internalType":"uint256"},{"name":"max","type":"uint256","internalType":"uint256"}]},{"type":"error","name":"ERC4626ExceededMaxMint","inputs":[{"name":"receiver","type":"address","internalType":"address"},{"name":"shares","type":"uint256","internalType":"uint256"},{"name":"max","type":"uint256","internalType":"uint256"}]},{"type":"error","name":"ERC4626ExceededMaxRedeem","inputs":[{"name":"owner","type":"address","internalType":"address"},{"name":"shares","type":"uint256","internalType":"uint256"},{"name":"max","type":"uint256","internalType":"uint256"}]},{"type":"error","name":"ERC4626ExceededMaxWithdraw","inputs":[{"name":"owner","type":"address","internalType":"address"},{"name":"assets","type":"uint256","internalType":"uint256"},{"name":"max","type":"uint256","internalType":"uint256"}]},{"type":"error","name":"FailedCall","inputs":[]},{"type":"error","name":"InsufficientDeposit","inputs":[]},{"type":"error","name":"InsufficientSlippage","inputs":[]},{"type":"error","name":"InvalidInitialization","inputs":[]},{"type":"error","name":"NoFeesToClaim","inputs":[]},{"type":"error","name":"NotInitializing","inputs":[]},{"type":"error","name":"OwnableInvalidOwner","inputs":[{"name":"owner","type":"address","internalType":"address"}]},{"type":"error","name":"OwnableUnauthorizedAccount","inputs":[{"name":"account","type":"address","internalType":"address"}]},{"type":"error","name":"RebalanceNotProfitable","inputs":[]},{"type":"error","name":"ReentrancyGuardReentrantCall","inputs":[]},{"type":"error","name":"SafeERC20FailedOperation","inputs":[{"name":"token","type":"address","internalType":"address"}]},{"type":"error","name":"SlippageExceedsLimit","inputs":[]},{"type":"error","name":"TvlCapExceeded","inputs":[]},{"type":"error","name":"UUPSUnauthorizedCallContext","inputs":[]},{"type":"error","name":"UUPSUnsupportedProxiableUUID","inputs":[{"name":"slot","type":"bytes32","internalType":"bytes32"}]},{"type":"error","name":"WithdrawalLocked","inputs":[]}],"bytecode":{"object":"0x6101803462000308576001600160401b0390601f62004ba938819003918201601f19168301929190848411838510176200030c578160e092849260409687528339810103126200030857620000548162000320565b90620000636020820162000320565b926200007181830162000320565b94620000806060840162000320565b956200008f6080850162000320565b95620000ac60c0620000a460a0880162000320565b960162000320565b953060805260a05260c05260018060a01b0380911660e052806101009716875280610120961686528061014094168452610160941684527ff0c57e16840df040f15088dc2f81fe391c3923bec73e23a9662efc9c229c6a009081549060ff82851c16620002f7578080831603620002b2575b5050505192614873948562000336863960805185818161242e0152612734015260a051858181610759015281816107d4015281816109ce01528181610cc901528181610d5701528181610f0e015281816112a9015281816113d101528181611431015281816115eb015281816117290152818161180401528181611deb015281816120ec015281816125c90152818161261001528181612a020152818161307d015261335c015260c05185818161047f0152818161099001528181610ed00152818161169d0152818161177c0152818161188701528181611e180152818161212c0152818161253f0152613387015260e0518581816104c40152818161094c01528181610e910152818161162f01528181611cdd015281816121940152818161250501528181612a74015281816133ab01526137720152518481816116ea01528181611fbb01528181613ce601526140700152518381816129240152613c46015251828181611090015281816117c90152818161184901528181613ec101526141b301525181818161298c0152613e210152f35b6001600160401b0319909116811790915581519081527fc7f505b2f371ae2175ee4913f4499e1f2633a7b5936321eed1cdaeb6115181d290602090a15f80806200011e565b835163f92ee8a960e01b8152600490fd5b5f80fd5b634e487b7160e01b5f52604160045260245ffd5b51906001600160a01b0382168203620003085756fe60806040526004361015610011575f80fd5b5f803560e01c806301e1d11414612df457806306fdde0314612d2e57806307a2d13a14612953578063095ea7b314612c7f5780630a28a47714612c6157806318160ddd14612c3857806323b872dd14612c16578063313ce56714612bca578063345210dd14612ba257806338d52e0f14612b6e5780633f23fa1a14612b515780633f4ba83a146129bb578063402d267d1461046457806342d9a69c146129765780634b1533b2146129585780634cdad506146129535780634db4a3521461290e5780634de5120e146103e65780634e7367a4146128f05780634f1ef286146126b957806351858e271461249857806352d1902d1461241b57806354859ef5146123d45780635c975abb146123ae57806362dab626146123755780636e553f651461205357806370a08231146103ba578063715018a614611fea578063735de9f714611fa55780637d7c2a1c14611c6a5780638129fc1c146113485780638456cb59146112d857806389a30271146112935780638da5cb5b1461125e57806394bf804d1461119e57806395d89b41146110bf578063984622461461107a578063a06880c014611021578063a9059cbb14610fef578063ad3cb1cc14610fa5578063afd458bc14610c6f578063b3d7f6b914610c50578063b460af9414610611578063ba087652146104f3578063c0b10b79146104ae578063c54e44eb14610469578063c63d75b614610464578063c6e6f5921461031f578063ce96cb771461041e578063cf27e06f146103e6578063d905777e146103ba578063dd0290e21461036c578063dd62ed3e14610324578063ef8b30f71461031f578063f2fde38b146102f25763f3a66b1214610282575f80fd5b346102ef576102a261029336612e96565b9161029c613722565b50613b65565b60405180916020825260018060a01b0381511660208301526020810151604083015262ffffff60606102e2604084015160808387015260a0860190612e0e565b9201511660808301520390f35b80fd5b50346102ef5760203660031901126102ef5761031c61030f612e6a565b610317613ac6565b6136b1565b80f35b61302c565b50346102ef5760403660031901126102ef5761033e612e6a565b61034f610349612e80565b91612fbf565b9060018060a01b03165f52602052602060405f2054604051908152f35b50346102ef5760203660031901126102ef577f2923cecec41b7140eaf657a035af4abb23ed61d16b1fc20a986838eb3ad99bd060206004356103ac613ac6565b80600455604051908152a180f35b50346102ef5760203660031901126102ef5760206103de6103d9612e6a565b6131df565b604051908152f35b50346102ef5760203660031901126102ef576020906040906001600160a01b0361040e612e6a565b1681528083522054604051908152f35b50346102ef5760203660031901126102ef576020906103de906040906001600160a01b0361044a612e6a565b1681525f8051602061471e833981519152845220546138a0565b612ecb565b50346102ef57806003193601126102ef576040517f00000000000000000000000000000000000000000000000000000000000000006001600160a01b03168152602090f35b50346102ef57806003193601126102ef576040517f00000000000000000000000000000000000000000000000000000000000000006001600160a01b03168152602090f35b50346102ef5761050236612ff7565b61050b816131df565b8084116105dd57508261051f6020946138a0565b9260018060a01b039061053c83838616958633036105cd576143d9565b5f805160206147be8339815191525460405163a9059cbb60e01b888201526001600160a01b03831660248201526044810187905261059291841661058d82606481015b03601f198101845283612f83565b614620565b604051928584528684015216907ffbde797d201c681b91056529119e0b02407c7bb96a4a2c75c01fc9667232c8db60403392a4604051908152f35b6105d8823383613945565b6143d9565b604051632e52afbb60e21b81526001600160a01b039290921660048301526024820193909352604481019290925250606490fd5b50346102ef5761062036612ff7565b90919261062b614334565b8315610c0b576001600160a01b03938385169161064983151561317b565b858416938415610bd6578482526020968288526040832054620151808101809111610bc257421080610bb2575b610ba0578583525f8051602061471e83398151915288526040832054968715610b63576106a2886138a0565b926106ac866138d7565b988911610b2857886106bd916143d9565b849287855260018a526040852054808211610abf575b506106f29088865260018b526106ed876040882054613212565b613225565b87855260018a52604085208054808311610ab7575b8261071191613205565b90556002548111610aad5761072890600254613205565b6002555b60035460ff8160a01c165f1461090857506040516370a0823160e01b815230600482015283908a816024817f000000000000000000000000000000000000000000000000000000000000000088165afa9081156108fd5786916108cc575b5010610887579188916107d094935b60405163a9059cbb60e01b81526001600160a01b039091166004820152602481019290925290938491908290859082906044820190565b03927f0000000000000000000000000000000000000000000000000000000000000000165af190811561087b575061084e575b5060405190815283858201527ffbde797d201c681b91056529119e0b02407c7bb96a4a2c75c01fc9667232c8db60403392a460015f805160206147fe83398151915255604051908152f35b61086d90863d8811610874575b6108658183612f83565b8101906131c7565b505f610803565b503d61085b565b604051903d90823e3d90fd5b60405162461bcd60e51b8152600481018a9052601960248201527f496e73756666696369656e7420555344432062616c616e6365000000000000006044820152606490fd5b90508a81813d83116108f6575b6108e38183612f83565b810103126108f257515f61078a565b5f80fd5b503d6108d9565b6040513d88823e3d90fd5b9091939280610915613746565b10610a5c57604051631a4ca37b60e21b81529185166001600160a01b031660048301526024820152306044820152908882606481867f000000000000000000000000000000000000000000000000000000000000000089165af1918215610a5157908992918492610a1e575b50936107d094828260035416907f0000000000000000000000000000000000000000000000000000000000000000918483161480610a15575b6109c6575b5050610799565b610a0d9294507f00000000000000000000000000000000000000000000000000000000000000006109f8828285613b65565b9185835116918860408501519401519461401d565b915f806109bf565b508015156109ba565b8381949293503d8311610a4a575b610a368183612f83565b810103126108f257905188916107d0610981565b503d610a2c565b6040513d85823e3d90fd5b60405162461bcd60e51b8152600481018b90526024808201527f496e73756666696369656e742062616c616e636520696e206c656e64696e67206044820152631c1bdbdb60e21b6064820152608490fd5b508360025561072c565b915081610707565b81610acb929550613205565b6105dc90818102918183041490151715610b1457610af4846106ed886127106106f29504613212565b93610b0b610b028689613205565b956005546131ba565b600555906106d3565b634e487b7160e01b85526011600452602485fd5b60405162461bcd60e51b8152600481018b90526013602482015272496e73756666696369656e742073686172657360681b6044820152606490fd5b60405162461bcd60e51b8152600481018a905260156024820152744e6f2073686172657320746f20776974686472617760581b6044820152606490fd5b604051630c8445b760e21b8152600490fd5b5060ff60035460a01c1615610676565b634e487b7160e01b84526011600452602484fd5b60405162461bcd60e51b815260206004820152600d60248201526c24b73b30b634b21037bbb732b960991b6044820152606490fd5b60405162461bcd60e51b815260206004820152601b60248201527f43616e6e6f74207769746864726177207a65726f2061737365747300000000006044820152606490fd5b50346102ef5760203660031901126102ef5760206103de600435613869565b50346102ef57806003193601126102ef57610c88613ac6565b610c90614334565b6005548015610f93578160055560035460ff8160a01c165f14610e5d57506040516370a0823160e01b81523060048201526020816024817f00000000000000000000000000000000000000000000000000000000000000006001600160a01b03165afa8015610a515782918491610e28575b5010610de357610d53905b5f8051602061475e8339815191525460405163a9059cbb60e01b81526001600160a01b039182166004820152602481018390529260209184918290879082906044820190565b03927f0000000000000000000000000000000000000000000000000000000000000000165af1908115610a51577f83db9dc084973306ecd0b0f10cb495b81dd9ddcc135eb7934d2723bcabc8f4c392602092610dc6575b50604051908152a160015f805160206147fe8339815191525580f35b610ddc90833d8511610874576108658183612f83565b505f610daa565b60405162461bcd60e51b815260206004820152601a60248201527f496e73756666696369656e74205553444320666f7220666565730000000000006044820152606490fd5b9150506020813d602011610e55575b81610e4460209383612f83565b810103126108f2578190515f610d02565b3d9150610e37565b604051631a4ca37b60e21b81526001600160a01b0391821660048201526024810192909252306044830152602082606481867f000000000000000000000000000000000000000000000000000000000000000086165af18015610a51578390610f5f575b610d53925080918060035416917f0000000000000000000000000000000000000000000000000000000000000000928284161480610f56575b610f07575b505050610d0d565b610f4e93507f000000000000000000000000000000000000000000000000000000000000000090610f39818386613b65565b9283511691602060408501519401519461401d565b5f8080610eff565b50801515610efa565b506020823d602011610f8b575b81610f7960209383612f83565b810103126108f257610d539151610ec1565b3d9150610f6c565b60405163211b631760e21b8152600490fd5b50346102ef57806003193601126102ef57610feb604051610fc581612f4d565b60058152640352e302e360dc1b6020820152604051918291602083526020830190612e0e565b0390f35b50346102ef5760403660031901126102ef5761101661100c612e6a565b60243590336139dd565b602060405160018152f35b50346102ef57806003193601126102ef5761103a613340565b9061105c6040959495519586951515865260a0602087015260a0860190612e0e565b6001600160a01b039093166040850152606084015260808301520390f35b50346102ef57806003193601126102ef576040517f00000000000000000000000000000000000000000000000000000000000000006001600160a01b03168152602090f35b50346102ef57806003193601126102ef576040519080825f8051602061473e8339815191529283546110f0816130e7565b93848452602095600192876001821691825f1461117a575050600114611134575b50505061112092500383612f83565b610feb604051928284938452830190612e0e565b8152859250905f805160206147de8339815191525b85831061116257505061112093508201015f8080611111565b80548389018501528794508693909201918101611149565b93509450505061112094915060ff191682840152151560051b8201015f8080611111565b50346102ef5760403660031901126102ef5760206004356111bd612e80565b906111c781613869565b5f805160206147be833981519152546040516323b872dd60e01b868201523360248201523060448201526064810183905291936001600160a01b039290916112199190841661058d826084810161057f565b6112238382614363565b604051928484528584015216907fdcbc1c05240f31ff3ad067ef1ee35ce4997762752e3a095284754544f4c709d760403392a3604051908152f35b50346102ef57806003193601126102ef575f8051602061475e833981519152546040516001600160a01b039091168152602090f35b50346102ef57806003193601126102ef576040517f00000000000000000000000000000000000000000000000000000000000000006001600160a01b03168152602090f35b50346102ef57806003193601126102ef576112f1613ac6565b60035460ff8160a01c166113125760ff60a01b1916600160a01b1760035580f35b60405162461bcd60e51b815260206004820152600e60248201526d105b1c9958591e481c185d5cd95960921b6044820152606490fd5b50346102ef57806003193601126102ef575f8051602061481e833981519152546001600160401b03811680159081611c5a575b6001149081611c50575b159081611c47575b50611c355760016001600160401b03198216175f8051602061481e8339815191525560ff8160401c1615611c09575b6113c46144b1565b6113cc6144b1565b6113fe7f00000000000000000000000000000000000000000000000000000000000000006001600160a01b03166145a7565b9015611c01575b5f805160206147be83398151915280546001600160a81b03191660a09290921b60ff60a01b16919091177f00000000000000000000000000000000000000000000000000000000000000006001600160a01b03161790556040519161146983612f4d565b601383527214dd5c195c9b1a5b9ac81554d10815985d5b1d606a1b60208401526040519161149683612f4d565b60068352651cdd5c1554d160d21b60208401526114b16144b1565b6114b96144b1565b83516001600160401b038111611ae9576114e05f805160206146fe833981519152546130e7565b601f8111611b91575b506020601f8211600114611b085783949582939492611afd575b50508160011b915f199060031b1c1916175f805160206146fe833981519152555b82516001600160401b038111611ae95761154b5f8051602061473e833981519152546130e7565b601f8111611a75575b506020601f82116001146119ed578394829394926119e2575b50508160011b915f199060031b1c1916175f8051602061473e833981519152555b6115966144b1565b61159e6144b1565b6115a7336136b1565b6115af6144b1565b6115b76144b1565b6115bf6144b1565b60015f805160206147fe833981519152556402540be4006004908155600380546001600160a81b0319167f00000000000000000000000000000000000000000000000000000000000000006001600160a01b03908116918217909255600585905560405163095ea7b360e01b81527f00000000000000000000000000000000000000000000000000000000000000009092169282018390525f1960248301526020908290604490829088905af18015611999576119c3575b5060405163095ea7b360e01b815260048101919091525f196024820152602081604481867f00000000000000000000000000000000000000000000000000000000000000006001600160a01b03165af18015610a51576119a4575b5060405163095ea7b360e01b81526001600160a01b037f00000000000000000000000000000000000000000000000000000000000000008116600483018190525f19602484015291906020908290604490829088907f0000000000000000000000000000000000000000000000000000000000000000165af180156119995761197a575b5060405163095ea7b360e01b815260048101919091525f196024820152602081604481867f00000000000000000000000000000000000000000000000000000000000000006001600160a01b03165af18015610a515761195b575b5060405163095ea7b360e01b81526001600160a01b037f0000000000000000000000000000000000000000000000000000000000000000811660048301525f1960248301526020908290604490829087907f0000000000000000000000000000000000000000000000000000000000000000165af18015610a515761193c575b5060405163095ea7b360e01b81526001600160a01b037f0000000000000000000000000000000000000000000000000000000000000000811660048301525f1960248301529091906020908390604490829087907f0000000000000000000000000000000000000000000000000000000000000000165af1918215610a515760ff9261191d575b5060401c16156118c55780f35b68ff0000000000000000195f8051602061481e83398151915254165f8051602061481e833981519152557fc7f505b2f371ae2175ee4913f4499e1f2633a7b5936321eed1cdaeb6115181d2602060405160018152a180f35b6119359060203d602011610874576108658183612f83565b505f6118b8565b6119549060203d602011610874576108658183612f83565b505f611831565b6119739060203d602011610874576108658183612f83565b505f6117b1565b6119929060203d602011610874576108658183612f83565b505f611756565b6040513d86823e3d90fd5b6119bc9060203d602011610874576108658183612f83565b505f6116d2565b6119db9060203d602011610874576108658183612f83565b505f611677565b015190505f8061156d565b5f8051602061473e83398151915284525f805160206147de83398151915290845b601f1984168110611a5d5750600193949583601f19811610611a45575b505050811b015f8051602061473e8339815191525561158e565b01515f1960f88460031b161c191690555f8080611a2b565b9091602060018192858a015181550193019101611a0e565b5f8051602061473e8339815191528452601f820160051c5f805160206147de833981519152019060208310611ad4575b601f0160051c5f805160206147de83398151915201905b818110611ac95750611554565b848155600101611abc565b5f805160206147de8339815191529150611aa5565b634e487b7160e01b83526041600452602483fd5b015190505f80611503565b5f805160206146fe83398151915284525f805160206146de83398151915290845b601f1984168110611b79575060019394959683601f19811610611b61575b505050811b015f805160206146fe83398151915255611524565b01515f1960f88460031b161c191690555f8080611b47565b9091602060018192858b015181550193019101611b29565b5f805160206146fe8339815191528452601f820160051c5f805160206146de8339815191520160208310611bed575b601f820160051c5f805160206146de833981519152018110611be257506114e9565b848155600101611bc0565b505f805160206146de833981519152611bc0565b506012611405565b68ffffffffffffffffff19811668010000000000000001175f8051602061481e833981519152556113bc565b60405163f92ee8a960e01b8152600490fd5b9050155f61138d565b303b159150611385565b604083901c60ff1615915061137b565b50346102ef57806003193601126102ef57611c83613ac6565b611c8b614334565b600380549060ff8260a01c16611f9357611ca3613340565b50509291905015611efa57604051631a4ca37b60e21b81526001600160a01b0393841660048201525f1960248201523060448201526020907f000000000000000000000000000000000000000000000000000000000000000085169082816064818a865af1908115611f88578391611f5f575b50508585845416604051956370a0823160e01b87523060048801528487602481855afa968715610a51578397611f2c575b508688821692808403611e86575b505085546001600160a01b03198116831787559050833b15611e825760405163617ba03760e01b8152908316919091176001600160a01b03166004820152602481018690523060448201525f60648201529181908390608490829084905af1918215611e75578692611e5a575b50507f4ce94e8bd94f62017197ba464f629a366572732970f6fe47c76f97bb53f76303925416937f000000000000000000000000000000000000000000000000000000000000000081811686145f14611e5557507f00000000000000000000000000000000000000000000000000000000000000005b6040519485521692a360015f805160206147fe8339815191525580f35b611e38565b611e65919250612ef0565b611e715783855f611dc2565b8480fd5b50604051903d90823e3d90fd5b8280fd5b8193985082945091611e9792613b65565b9184830180518084115f14611f2357611eb09084613205565b61271090818102918183041490151715611f0f57611ed084600592613225565b11611efa578993611ef1938a8954169360408c84511693015193519461401d565b945f8080611d55565b6040516001622abbb960e11b03198152600490fd5b634e487b7160e01b8b52601160045260248bfd5b5060058a611ed0565b85809298508194503d8311611f58575b611f468183612f83565b810103126108f257879151955f611d47565b503d611f3c565b813d8311611f81575b611f728183612f83565b810103126108f257815f611d16565b503d611f68565b6040513d89823e3d90fd5b60405163ab35696f60e01b8152600490fd5b50346102ef57806003193601126102ef576040517f00000000000000000000000000000000000000000000000000000000000000006001600160a01b03168152602090f35b50346102ef57806003193601126102ef57612003613ac6565b5f8051602061475e83398151915280546001600160a01b031981169091555f906001600160a01b03167f8be0079c531659141344cd1fd0a4f28419497f9722a3daafe3b4186f6b6457e08280a380f35b50346102ef5760403660031901126102ef57600435612070612e80565b612078614334565b60ff60035460a01c1661233b5781156122f6576001600160a01b0391818316916120a383151561317b565b620f424082106122e4576120be826120b961304a565b6131ba565b600454106122d2576040516323b872dd60e01b815233600482015230602482015260448101839052602095907f0000000000000000000000000000000000000000000000000000000000000000908781606481868b87165af18015610a51576122b5575b50839086600354167f00000000000000000000000000000000000000000000000000000000000000009088821614612288575b50506121608461390e565b9585835282885242604084205560018852604083206121808682546131ba565b905561218e856002546131ba565b600255807f000000000000000000000000000000000000000000000000000000000000000016906003541691813b156122845760405163617ba03760e01b81526001600160a01b0393909316600484015260248301523060448301525f606483015282908290608490829084905af180156122795790869291612261575b505061221791614363565b60405190815282848201527fdcbc1c05240f31ff3ad067ef1ee35ce4997762752e3a095284754544f4c709d760403392a360015f805160206147fe83398151915255604051908152f35b81925061226d90612ef0565b6102ef5780859161220c565b6040513d84823e3d90fd5b8380fd5b6122ae9250612298868284613b65565b908689835116918b60408501519401519461401d565b5f80612155565b6122cb90883d8a11610874576108658183612f83565b505f612122565b60405163161ca4c760e31b8152600490fd5b60405163070f6eed60e11b8152600490fd5b60405162461bcd60e51b815260206004820152601a60248201527f43616e6e6f74206465706f736974207a65726f206173736574730000000000006044820152606490fd5b60405162461bcd60e51b815260206004820152601260248201527110dbdb9d1c9858dd081a5cc81c185d5cd95960721b6044820152606490fd5b50346102ef5760203660031901126102ef576020906040906001600160a01b0361239d612e6a565b168152600183522054604051908152f35b50346102ef57806003193601126102ef57602060ff60035460a01c166040519015158152f35b50346102ef57806003193601126102ef576123ed61311f565b6040519315158452608060208501819052849361240c91850190612e0e565b91604084015260608301520390f35b50346102ef57806003193601126102ef577f00000000000000000000000000000000000000000000000000000000000000006001600160a01b031630036124865760206040517f360894a13ba1a3210667c828492db98dca3e2076cc3735a920a3ca505d382bbc8152f35b60405163703e46dd60e11b8152600490fd5b50346102ef57806003193601126102ef576124b1613ac6565b60035460ff8160a01c16611f935760ff60a01b198116600160a01b17600355604051631a4ca37b60e21b81526001600160a01b0391821660048201525f1960248201523060448201526020908181606481877f000000000000000000000000000000000000000000000000000000000000000088165af1908115611999578291612690575b505081600354167f000000000000000000000000000000000000000000000000000000000000000090838216809114612592575b847f4cb3183d0bf66f9634b15cfc3539fdddc96c2c9324848af89b56586a6739fec48180a180f35b82602491604051928380926370a0823160e01b82523060048301525afa908115612685578591612658575b508061260a575b5050507f0000000000000000000000000000000000000000000000000000000000000000166bffffffffffffffffffffffff60a01b60035416176003555f80808061256a565b61264f927f00000000000000000000000000000000000000000000000000000000000000009161263b818486613b65565b92868451169260408501519401519461401d565b505f80806125c4565b90508281813d831161267e575b61266f8183612f83565b810103126108f257515f6125bd565b503d612665565b6040513d87823e3d90fd5b813d83116126b2575b6126a38183612f83565b810103126108f257805f612536565b503d612699565b5060403660031901126102ef576126ce612e6a565b60249182356001600160401b0381116128ec57366023820112156128ec578060040135926126fb84612fa4565b6127086040519182612f83565b84815260209485820193368883830101116128b357818692898993018737830101526001600160a01b037f000000000000000000000000000000000000000000000000000000000000000081163081149081156128be575b506124865761276d613ac6565b6040516352d1902d60e01b81529083169580826004818a5afa918291879361288a575b50506127ae57604051634c9c8ce360e01b8152600481018790528790fd5b8590877f360894a13ba1a3210667c828492db98dca3e2076cc3735a920a3ca505d382bbc918281036128755750843b1561285f575080546001600160a01b031916821790556040518592917fbc7cd75a20ee27fd9adebab32041f755214dbc6bffa90cc0225b39da2e5c2d3b8480a2815115612842575061283e9382915190845af4612838614578565b9161467a565b5080f35b935050505034612850575080f35b63b398979f60e01b8152600490fd5b604051634c9c8ce360e01b815260048101849052fd5b60405190632a87526960e21b82526004820152fd5b9080929350813d83116128b7575b6128a28183612f83565b810103126128b35751905f80612790565b8580fd5b503d612898565b9050817f360894a13ba1a3210667c828492db98dca3e2076cc3735a920a3ca505d382bbc541614155f612760565b5080fd5b50346102ef57806003193601126102ef576020600554604051908152f35b50346102ef57806003193601126102ef576040517f00000000000000000000000000000000000000000000000000000000000000006001600160a01b03168152602090f35b612e4c565b50346102ef57806003193601126102ef576020600254604051908152f35b50346102ef57806003193601126102ef576040517f00000000000000000000000000000000000000000000000000000000000000006001600160a01b03168152602090f35b50346108f2575f3660031901126108f2576129d4613ac6565b60035460ff8160a01c1615612b3f5760ff60a01b19166003556040516370a0823160e01b81523060048201527f0000000000000000000000000000000000000000000000000000000000000000906001600160a01b036020826024818487165afa918215612b00575f92612b0b575b5081612a72575b837fa45f47fdea8a1efdd9029a5691c7f759c32b7c698632b563573e155625d169338180a180f35b7f00000000000000000000000000000000000000000000000000000000000000001691823b156108f25760405163617ba03760e01b81526001600160a01b0391909116600482015260248101919091523060448201525f6064820181905290918290608490829084905af18015612b0057612aef575b8080612a4a565b612af99150612ef0565b5f80612ae8565b6040513d5f823e3d90fd5b9091506020813d602011612b37575b81612b2760209383612f83565b810103126108f25751905f612a43565b3d9150612b1a565b60405163dcdde9dd60e01b8152600490fd5b346108f2575f3660031901126108f2576020600454604051908152f35b346108f2575f3660031901126108f2575f805160206147be833981519152546040516001600160a01b039091168152602090f35b346108f2575f3660031901126108f2576003546040516001600160a01b039091168152602090f35b346108f2575f3660031901126108f25760ff5f805160206147be8339815191525460a01c1660ff8111612c0257602090604051908152f35b634e487b7160e01b5f52601160045260245ffd5b346108f257611016612c2736612e96565b91612c33833383613945565b6139dd565b346108f2575f3660031901126108f25760205f8051602061477e83398151915254604051908152f35b346108f25760203660031901126108f25760206103de6004356138d7565b346108f25760403660031901126108f257612c98612e6a565b602435903315612d16576001600160a01b0316908115612cfe57612cbb33612fbf565b825f526020528060405f20556040519081527f8c5be1e5ebec7d5bd14f71427d1e84f3dd0314c0f7b2291e5b200ac8c7c3b92560203392a3602060405160018152f35b604051634a1406b160e11b81525f6004820152602490fd5b60405163e602df0560e01b81525f6004820152602490fd5b346108f2575f3660031901126108f2576040515f805160206146fe8339815191528054825f612d5c836130e7565b92838352602094600191866001821691825f14612dd2575050600114612d8b575b505061112092500383612f83565b8592505f525f805160206146de833981519152905f915b858310612dba57505061112093508201018580612d7d565b80548389018501528794508693909201918101612da2565b925093505061112094915060ff191682840152151560051b8201018580612d7d565b346108f2575f3660031901126108f25760206103de61304a565b91908251928382525f5b848110612e38575050825f602080949584010152601f8019910116010190565b602081830181015184830182015201612e18565b346108f25760203660031901126108f25760206103de6004356138a0565b600435906001600160a01b03821682036108f257565b602435906001600160a01b03821682036108f257565b60609060031901126108f2576001600160a01b039060043582811681036108f2579160243590811681036108f2579060443590565b346108f25760203660031901126108f257612ee4612e6a565b5060206040515f198152f35b6001600160401b038111612f0357604052565b634e487b7160e01b5f52604160045260245ffd5b608081019081106001600160401b03821117612f0357604052565b60a081019081106001600160401b03821117612f0357604052565b604081019081106001600160401b03821117612f0357604052565b606081019081106001600160401b03821117612f0357604052565b90601f801991011681019081106001600160401b03821117612f0357604052565b6001600160401b038111612f0357601f01601f191660200190565b6001600160a01b03165f9081527f52c63247e1f47db19d5ce0460030c497f067ca4cebf71ba98eeadabe20bace016020526040902090565b60609060031901126108f257600435906001600160a01b039060243582811681036108f2579160443590811681036108f25790565b346108f25760203660031901126108f25760206103de60043561390e565b60ff60035460a01c166130625761305f613746565b90565b6040516370a0823160e01b81523060048201526020816024817f00000000000000000000000000000000000000000000000000000000000000006001600160a01b03165afa908115612b00575f916130b8575090565b90506020813d6020116130df575b816130d360209383612f83565b810103126108f2575190565b3d91506130c6565b90600182811c92168015613115575b602083101461310157565b634e487b7160e01b5f52602260045260245ffd5b91607f16916130f6565b613127613340565b5050509015613172575060019060405161314081612f4d565b601e81527f526562616c616e63696e6720617070656172732070726f66697461626c6500006020820152905f90600590565b5f918290600590565b1561318257565b60405162461bcd60e51b815260206004820152601060248201526f24b73b30b634b2103932b1b2b4bb32b960811b6044820152606490fd5b91908201809211612c0257565b908160209103126108f2575180151581036108f25790565b6001600160a01b03165f9081525f8051602061471e833981519152602052604090205490565b91908203918211612c0257565b81810292918115918404141715612c0257565b811561322f570490565b634e487b7160e01b5f52601260045260245ffd5b51906001600160801b03821682036108f257565b51906001600160a01b03821682036108f257565b90816101e09103126108f25780519161328660208301613243565b9161329360408201613243565b916132a060608301613243565b916132ad60808201613243565b916132ba60a08301613243565b9160c081015164ffffffffff811681036108f2579160e082015161ffff811681036108f257916132ed6101008201613257565b916132fb6101208301613257565b916133096101408201613257565b916133176101608301613257565b916133256101808201613243565b9161305f6101c06133396101a08501613243565b9301613243565b6003549060ff8260a01c1661367a576001600160a01b039182167f0000000000000000000000000000000000000000000000000000000000000000808416820361367457507f0000000000000000000000000000000000000000000000000000000000000000905b837f000000000000000000000000000000000000000000000000000000000000000016906040948551916335ea6a7560e01b9081845260048401526101e0918284602481885afa5f9481613646575b50613441575050505050505f915161340e81612f4d565b602081527f4661696c656420746f206765742063757272656e7420617373657420646174616020820152905f905f905f90565b60248392895196879384928352891660048301525afa9283915f94613608575b50506134b6575050505f91636461746160e01b81519161348083612f68565b602483527f4661696c656420746f2067657420616c7465726e6174697665206173736574206020840152820152905f905f905f90565b919290916127106001600160801b039182168181029290801590840483141715612c02576b033b2e3c9fd0803ce80000008093049416818102918183041490151715612c02570490828211156135b65760646135128484613205565b10613554576001945161352481612f4d565b601f81527f526562616c616e63696e6720776f756c642062652070726f66697461626c6500602082015293929190565b5f947f6f766572207377617020636f73747320616e6420736c6970706167650000000081519161358383612f68565b603c83527f41505920646966666572656e636520696e73756666696369656e7420746f2063602084015282015293929190565b92505f936920657175616c2041505960b01b8151916135d483612f68565b602a83527f43757272656e7420616c6c6f636174696f6e2068617320626574746572206f726020840152820152925f929190565b613628929450803d1061363f575b6136208183612f83565b81019061326b565b505050505050505050505050915050915f80613461565b503d613616565b61365e919550843d861161363f576136208183612f83565b505050505050505050505050915050935f6133f7565b906133a8565b6040515f925061368981612f4d565b601281527110dbdb9d1c9858dd081a5cc81c185d5cd95960721b6020820152905f905f905f90565b6001600160a01b0390811690811561370a575f8051602061475e83398151915280546001600160a01b031981168417909155167f8be0079c531659141344cd1fd0a4f28419497f9722a3daafe3b4186f6b6457e05f80a3565b604051631e4fbdf760e01b81525f6004820152602490fd5b6040519061372f82612f17565b5f6060838281528260208201528160408201520152565b6003546040516335ea6a7560e01b81526001600160a01b0391821660048201526101e0919082816024817f000000000000000000000000000000000000000000000000000000000000000086165afa908115612b00575f935f92613838575b5050602090602460405180948193630ed1279f60e11b8352306004840152165afa908115612b00575f916137fa575b506137f6906001600160801b036b033b2e3c9fd0803ce8000000931690613212565b0490565b90506020813d602011613830575b8161381560209383612f83565b810103126108f257516b033b2e3c9fd0803ce80000006137d4565b3d9150613808565b602094506138529250803d1061363f576136208183612f83565b50505050505099975050505050505092905f6137a5565b61387161304a565b60018101809111612c02575f8051602061477e833981519152549060018201809211612c025761305f92614491565b6138a861304a565b60018101809111612c02575f8051602061477e833981519152549060018201809211612c025761305f926144df565b5f8051602061477e8339815191525460018101809111612c02576138f961304a565b9060018201809211612c025761305f92614491565b5f8051602061477e8339815191525460018101809111612c025761393061304a565b9060018201809211612c025761305f926144df565b61394e81612fbf565b9060018060a01b0380841692835f5260205260405f2054935f198510613977575b505050505050565b8585106139ac5750811615612d16578115612cfe5761399590612fbf565b905f526020520360405f20555f808080808061396f565b604051637dc7a0d960e11b81526001600160a01b039190911660048201526024810185905260448101869052606490fd5b916001600160a01b03808416928315613aae5716928315613a9657825f525f8051602061471e8339815191528060205260405f205491838310613a63575091806020927fddf252ad1be2c89b69c2b068fc378daa952ba7f163c4a11628f55a4df523b3ef94865f5284520360405f2055845f5260405f20818154019055604051908152a3565b60405163391434e360e21b81526001600160a01b0391909116600482015260248101929092525060448101829052606490fd5b60405163ec442f0560e01b81525f6004820152602490fd5b604051634b637e8f60e11b81525f6004820152602490fd5b5f8051602061475e833981519152546001600160a01b03163303613ae657565b60405163118cdaa760e01b8152336004820152602490fd5b906004811015613b0f5760051b0190565b634e487b7160e01b5f52603260045260245ffd5b91908260809103126108f257815160208301519092906001600160a01b03811681036108f25791604082015163ffffffff811681036108f25760609092015190565b9290613b6f613722565b938315613fd8575f9060405192613b8584612f17565b606484526101f46020850152610bb8604085015261271060608501525f5b600480821015613d505762ffffff613bbb8388613afe565b511660405190613bca82612f32565b6001600160a01b038681168352858116602080850191825260408086018e815260608088019687525f6080808a019182528451636352813560e11b8152995188169a8a019a8b5295518716948a0194909452905191880191909152935162ffffff16938601939093529151169281019290925290808260a4815f7f00000000000000000000000000000000000000000000000000000000000000006001600160a01b03165af19182915f93613d1e575b5050613c8a575b50600101613ba3565b84811115613c8157909750925060018362ffffff613ca88a88613afe565b511660405190602082015260208152613cc081612f4d565b62ffffff613cce8b89613afe565b51169060405192613cde84612f17565b848060a01b037f00000000000000000000000000000000000000000000000000000000000000001684526020840152604083015260608201529790613c81565b613d3e929350803d10613d49575b613d368183612f83565b810190613b23565b505050905f80613c7a565b503d613d2c565b50506040519350613d6084612f17565b606484526101f460208501526109c46040850152610bb860608501525f5b600480821015613f1b5762ffffff613d968388613afe565b511660405190613da582612f32565b6001600160a01b038681168352858116602080850191825260408086018e815260608088019687525f6080808a019182528451636352813560e11b8152995188169a8a019a8b5295518716948a0194909452905191880191909152935162ffffff16938601939093529151169281019290925290808260a4815f7f00000000000000000000000000000000000000000000000000000000000000006001600160a01b03165af19182915f93613ef9575b5050613e65575b50600101613d7e565b84811115613e5c57909750925060018362ffffff613e838a88613afe565b511660405190602082015260208152613e9b81612f4d565b62ffffff613ea98b89613afe565b51169060405192613eb984612f17565b848060a01b037f00000000000000000000000000000000000000000000000000000000000000001684526020840152604083015260608201529790613e5c565b613f10929350803d10613d4957613d368183612f83565b505050905f80613e55565b50505050919290508115613f9c5761270b80820291820403612c0257612710900411613f4357565b60405162461bcd60e51b815260206004820152602b60248201527f526f75746520736c69707061676520746f6f206869676820666f72207374616260448201526a06c65636f696e20737761760ac1b6064820152608490fd5b60405162461bcd60e51b8152602060048201526014602482015273139bc81d985b1a59081c9bdd5d1948199bdd5b9960621b6044820152606490fd5b60405162461bcd60e51b815260206004820152601860248201527f43616e6e6f7420726f757465207a65726f20616d6f756e7400000000000000006044820152606490fd5b90939492919261270690818102918183041490151715612c02576127109004918580516020978891810103126108f2578601519262ffffff918285168095036108f2576001600160a01b039081169690937f00000000000000000000000000000000000000000000000000000000000000008516918883036141ab576040519360e08501958587106001600160401b03881117612f03578780948d9860405216865283878701931683528360408701918a8352606088019030825260808901938d855260a08a019586528360c08b01975f89526040519d8e9c8d6304e45aaf60e01b9052511660048d0152511660248b015251166044890152511660648701525160848601525160a4850152511660c4830152815a60e4925f91f1908115612b00575f9161416f575b50905f8051602061479e83398151915292606092955b604051928352820152846040820152a290565b9190508482813d83116141a4575b6141878183612f83565b810103126108f25790515f8051602061479e833981519152614146565b503d61417d565b9150928492947f000000000000000000000000000000000000000000000000000000000000000016918289145f146142fe5761012c420195864211612c0257604051966101008801908882106001600160401b03831117612f0357868095818f9a8e95604052168b52818a8c019616865260408b01908c825260608c019130835260808d0194855260a08d01958652838d60c0810198895260e001985f8a526040519e8f9d8e9163414bf38960e01b835251169060040152511660248c0152511660448a0152511660648801525160848701525160a48601525160c4850152511660e4830152815a610104925f91f1908115612b00575f916142c2575b50905f8051602061479e833981519152926060929561415c565b9190508482813d83116142f7575b6142da8183612f83565b810103126108f25790515f8051602061479e8339815191526142a8565b503d6142d0565b60405162461bcd60e51b8152600481018b9052600e60248201526d24b73b30b634b2103937baba32b960911b6044820152606490fd5b5f805160206147fe83398151915260028154146143515760029055565b604051633ee5aeb560e01b8152600490fd5b6001600160a01b0316908115613a96577fddf252ad1be2c89b69c2b068fc378daa952ba7f163c4a11628f55a4df523b3ef60205f925f8051602061477e8339815191526143b18282546131ba565b90558484525f8051602061471e833981519152825260408420818154019055604051908152a3565b91906001600160a01b038316908115613aae57815f525f8051602061471e8339815191528060205260405f2054948286106144605750817fddf252ad1be2c89b69c2b068fc378daa952ba7f163c4a11628f55a4df523b3ef925f959660209386885284520360408620555f8051602061477e833981519152818154039055604051908152a3565b60405163391434e360e21b81526001600160a01b039190911660048201526024810186905260448101839052606490fd5b9161449d8183856144df565b91811561322f5761305f93091515906131ba565b60ff5f8051602061481e8339815191525460401c16156144cd57565b604051631afcd79f60e31b8152600490fd5b90915f19838309928083029283808610950394808603951461456b57848311156145535790829109815f038216809204600280826003021880830282030280830282030280830282030280830282030280830282030280920290030293600183805f03040190848311900302920304170290565b82634e487b715f52156003026011186020526024601cfd5b50509061305f9250613225565b3d156145a2573d9061458982612fa4565b916145976040519384612f83565b82523d5f602084013e565b606090565b5f8091604051602081019063313ce56760e01b8252600481526145c981612f4d565b51916001600160a01b03165afa6145de614578565b9080614614575b6145f1575b505f905f90565b6020818051810103126108f2576020015160ff81116145ea579060ff6001921690565b506020815110156145e5565b905f602091828151910182855af115612b00575f513d61467157506001600160a01b0381163b155b61464f5750565b604051635274afe760e01b81526001600160a01b039091166004820152602490fd5b60011415614648565b906146a1575080511561468f57602081519101fd5b60405163d6bda27560e01b8152600490fd5b815115806146d4575b6146b2575090565b604051639996b31560e01b81526001600160a01b039091166004820152602490fd5b50803b156146aa56fe2ae08a8e29253f69ac5d979a101956ab8f8d9d7ded63fa7a83b16fc47648eab052c63247e1f47db19d5ce0460030c497f067ca4cebf71ba98eeadabe20bace0352c63247e1f47db19d5ce0460030c497f067ca4cebf71ba98eeadabe20bace0052c63247e1f47db19d5ce0460030c497f067ca4cebf71ba98eeadabe20bace049016d09d72d40fdae2fd8ceac6b6234c7706214fd39c1cd1e609a0528c19930052c63247e1f47db19d5ce0460030c497f067ca4cebf71ba98eeadabe20bace02cf5d8414609aaf0c96c1270830fbee1b007f5148064b7dd19aa9cf9215307a860773e532dfede91f04b12a73d3d2acd361424f41f76b4fb79f090161e36b4e0046a2803e59a4de4e7a4c574b1243f25977ac4c77d5a1a4a609b5394cebb4a2aa9b779b17422d0df92223018b32b4d1fa46e071723d6817e2486d003becc55f00f0c57e16840df040f15088dc2f81fe391c3923bec73e23a9662efc9c229c6a00a2646970667358221220d477985b4d2d5b4247c4c47715291317d44d92308d9969822234a552adc80b9c64736f6c63430008180033","linkReferences":{}},"methodIdentifiers":{"UPGRADE_INTERFACE_VERSION()":"ad3cb1cc","USDC()":"89a30271","USDT()":"c54e44eb","allowance(address,address)":"dd62ed3e","approve(address,uint256)":"095ea7b3","asset()":"38d52e0f","balanceOf(address)":"70a08231","canRebalance()":"a06880c0","checkRebalancingProfitability()":"54859ef5","claimPerformanceFees()":"afd458bc","convertToAssets(uint256)":"07a2d13a","convertToShares(uint256)":"c6e6f592","currentAllocation()":"345210dd","decimals()":"313ce567","deposit(uint256,address)":"6e553f65","emergencyPause()":"51858e27","getBestSwapRoute(address,address,uint256)":"f3a66b12","iguanaQuoter()":"42d9a69c","iguanaRouter()":"98462246","initialize()":"8129fc1c","lastWithdrawalTime(address)":"4de5120e","maxDeposit(address)":"402d267d","maxMint(address)":"c63d75b6","maxRedeem(address)":"d905777e","maxWithdraw(address)":"ce96cb77","mint(uint256,address)":"94bf804d","name()":"06fdde03","owner()":"8da5cb5b","pause()":"8456cb59","paused()":"5c975abb","previewDeposit(uint256)":"ef8b30f7","previewMint(uint256)":"b3d7f6b9","previewRedeem(uint256)":"4cdad506","previewWithdraw(uint256)":"0a28a477","proxiableUUID()":"52d1902d","rebalance()":"7d7c2a1c","redeem(uint256,address,address)":"ba087652","renounceOwnership()":"715018a6","setTvlCap(uint256)":"dd0290e2","superlendPool()":"c0b10b79","symbol()":"95d89b41","totalAssets()":"01e1d114","totalPerformanceFeesEarned()":"4e7367a4","totalPrincipal()":"4b1533b2","totalSupply()":"18160ddd","transfer(address,uint256)":"a9059cbb","transferFrom(address,address,uint256)":"23b872dd","transferOwnership(address)":"f2fde38b","tvlCap()":"3f23fa1a","uniswapQuoter()":"4db4a352","uniswapRouter()":"735de9f7","unpause()":"3f4ba83a","upgradeToAndCall(address,bytes)":"4f1ef286","userDepositTime(address)":"cf27e06f","userPrincipal(address)":"62dab626","withdraw(uint256,address,address)":"b460af94"},"id":44}