{"abi":[{"type":"constructor","inputs":[{"name":"_usdc","type":"address","internalType":"address"},{"name":"_usdt","type":"address","internalType":"address"},{"name":"_superlendPool","type":"address","internalType":"address"},{"name":"_uniswapRouter","type":"address","internalType":"address"},{"name":"_uniswapQuoter","type":"address","internalType":"address"},{"name":"_iguanaRouter","type":"address","internalType":"address"},{"name":"_iguanaQuoter","type":"address","internalType":"address"}],"stateMutability":"nonpayable"},{"type":"function","name":"UPGRADE_INTERFACE_VERSION","inputs":[],"outputs":[{"name":"","type":"string","internalType":"string"}],"stateMutability":"view"},{"type":"function","name":"USDC","inputs":[],"outputs":[{"name":"","type":"address","internalType":"address"}],"stateMutability":"view"},{"type":"function","name":"USDT","inputs":[],"outputs":[{"name":"","type":"address","internalType":"address"}],"stateMutability":"view"},{"type":"function","name":"allowance","inputs":[{"name":"owner","type":"address","internalType":"address"},{"name":"spender","type":"address","internalType":"address"}],"outputs":[{"name":"","type":"uint256","internalType":"uint256"}],"stateMutability":"view"},{"type":"function","name":"approve","inputs":[{"name":"spender","type":"address","internalType":"address"},{"name":"value","type":"uint256","internalType":"uint256"}],"outputs":[{"name":"","type":"bool","internalType":"bool"}],"stateMutability":"nonpayable"},{"type":"function","name":"asset","inputs":[],"outputs":[{"name":"","type":"address","internalType":"address"}],"stateMutability":"view"},{"type":"function","name":"balanceOf","inputs":[{"name":"account","type":"address","internalType":"address"}],"outputs":[{"name":"","type":"uint256","internalType":"uint256"}],"stateMutability":"view"},{"type":"function","name":"canRebalance","inputs":[],"outputs":[{"name":"canRebal","type":"bool","internalType":"bool"},{"name":"reason","type":"string","internalType":"string"},{"name":"betterAsset","type":"address","internalType":"address"},{"name":"currentAPY","type":"uint256","internalType":"uint256"},{"name":"betterAPY","type":"uint256","internalType":"uint256"}],"stateMutability":"view"},{"type":"function","name":"claimFees","inputs":[],"outputs":[],"stateMutability":"nonpayable"},{"type":"function","name":"convertToAssets","inputs":[{"name":"shares","type":"uint256","internalType":"uint256"}],"outputs":[{"name":"","type":"uint256","internalType":"uint256"}],"stateMutability":"view"},{"type":"function","name":"convertToShares","inputs":[{"name":"assets","type":"uint256","internalType":"uint256"}],"outputs":[{"name":"","type":"uint256","internalType":"uint256"}],"stateMutability":"view"},{"type":"function","name":"currentAllocation","inputs":[],"outputs":[{"name":"","type":"address","internalType":"address"}],"stateMutability":"view"},{"type":"function","name":"decimals","inputs":[],"outputs":[{"name":"","type":"uint8","internalType":"uint8"}],"stateMutability":"view"},{"type":"function","name":"deposit","inputs":[{"name":"assets","type":"uint256","internalType":"uint256"},{"name":"receiver","type":"address","internalType":"address"}],"outputs":[{"name":"","type":"uint256","internalType":"uint256"}],"stateMutability":"nonpayable"},{"type":"function","name":"emergencyPause","inputs":[],"outputs":[],"stateMutability":"nonpayable"},{"type":"function","name":"getBestSwapRoute","inputs":[{"name":"tokenIn","type":"address","internalType":"address"},{"name":"tokenOut","type":"address","internalType":"address"},{"name":"amountIn","type":"uint256","internalType":"uint256"}],"outputs":[{"name":"","type":"tuple","internalType":"struct SuperlinkUSDVault.RouteInfo","components":[{"name":"router","type":"address","internalType":"address"},{"name":"expectedOut","type":"uint256","internalType":"uint256"},{"name":"routeData","type":"bytes","internalType":"bytes"},{"name":"fee","type":"uint24","internalType":"uint24"}]}],"stateMutability":"nonpayable"},{"type":"function","name":"iguanaQuoter","inputs":[],"outputs":[{"name":"","type":"address","internalType":"contract IIguanaDEXQuoter"}],"stateMutability":"view"},{"type":"function","name":"iguanaRouter","inputs":[],"outputs":[{"name":"","type":"address","internalType":"contract IIguanaDEXRouter"}],"stateMutability":"view"},{"type":"function","name":"initialize","inputs":[],"outputs":[],"stateMutability":"nonpayable"},{"type":"function","name":"maxDeposit","inputs":[{"name":"","type":"address","internalType":"address"}],"outputs":[{"name":"","type":"uint256","internalType":"uint256"}],"stateMutability":"view"},{"type":"function","name":"maxMint","inputs":[{"name":"","type":"address","internalType":"address"}],"outputs":[{"name":"","type":"uint256","internalType":"uint256"}],"stateMutability":"view"},{"type":"function","name":"maxRedeem","inputs":[{"name":"owner","type":"address","internalType":"address"}],"outputs":[{"name":"","type":"uint256","internalType":"uint256"}],"stateMutability":"view"},{"type":"function","name":"maxWithdraw","inputs":[{"name":"owner","type":"address","internalType":"address"}],"outputs":[{"name":"","type":"uint256","internalType":"uint256"}],"stateMutability":"view"},{"type":"function","name":"mint","inputs":[{"name":"shares","type":"uint256","internalType":"uint256"},{"name":"receiver","type":"address","internalType":"address"}],"outputs":[{"name":"","type":"uint256","internalType":"uint256"}],"stateMutability":"nonpayable"},{"type":"function","name":"name","inputs":[],"outputs":[{"name":"","type":"string","internalType":"string"}],"stateMutability":"view"},{"type":"function","name":"owner","inputs":[],"outputs":[{"name":"","type":"address","internalType":"address"}],"stateMutability":"view"},{"type":"function","name":"paused","inputs":[],"outputs":[{"name":"","type":"bool","internalType":"bool"}],"stateMutability":"view"},{"type":"function","name":"previewDeposit","inputs":[{"name":"assets","type":"uint256","internalType":"uint256"}],"outputs":[{"name":"","type":"uint256","internalType":"uint256"}],"stateMutability":"view"},{"type":"function","name":"previewMint","inputs":[{"name":"shares","type":"uint256","internalType":"uint256"}],"outputs":[{"name":"","type":"uint256","internalType":"uint256"}],"stateMutability":"view"},{"type":"function","name":"previewRedeem","inputs":[{"name":"shares","type":"uint256","internalType":"uint256"}],"outputs":[{"name":"","type":"uint256","internalType":"uint256"}],"stateMutability":"view"},{"type":"function","name":"previewWithdraw","inputs":[{"name":"assets","type":"uint256","internalType":"uint256"}],"outputs":[{"name":"","type":"uint256","internalType":"uint256"}],"stateMutability":"view"},{"type":"function","name":"proxiableUUID","inputs":[],"outputs":[{"name":"","type":"bytes32","internalType":"bytes32"}],"stateMutability":"view"},{"type":"function","name":"rebalance","inputs":[],"outputs":[],"stateMutability":"nonpayable"},{"type":"function","name":"redeem","inputs":[{"name":"shares","type":"uint256","internalType":"uint256"},{"name":"receiver","type":"address","internalType":"address"},{"name":"owner","type":"address","internalType":"address"}],"outputs":[{"name":"","type":"uint256","internalType":"uint256"}],"stateMutability":"nonpayable"},{"type":"function","name":"renounceOwnership","inputs":[],"outputs":[],"stateMutability":"nonpayable"},{"type":"function","name":"setTvlCap","inputs":[{"name":"newCap","type":"uint256","internalType":"uint256"}],"outputs":[],"stateMutability":"nonpayable"},{"type":"function","name":"superlendPool","inputs":[],"outputs":[{"name":"","type":"address","internalType":"contract ISuperlendPool"}],"stateMutability":"view"},{"type":"function","name":"symbol","inputs":[],"outputs":[{"name":"","type":"string","internalType":"string"}],"stateMutability":"view"},{"type":"function","name":"totalAssets","inputs":[],"outputs":[{"name":"","type":"uint256","internalType":"uint256"}],"stateMutability":"view"},{"type":"function","name":"totalPrincipal","inputs":[],"outputs":[{"name":"","type":"uint256","internalType":"uint256"}],"stateMutability":"view"},{"type":"function","name":"totalSupply","inputs":[],"outputs":[{"name":"","type":"uint256","internalType":"uint256"}],"stateMutability":"view"},{"type":"function","name":"transfer","inputs":[{"name":"to","type":"address","internalType":"address"},{"name":"value","type":"uint256","internalType":"uint256"}],"outputs":[{"name":"","type":"bool","internalType":"bool"}],"stateMutability":"nonpayable"},{"type":"function","name":"transferFrom","inputs":[{"name":"from","type":"address","internalType":"address"},{"name":"to","type":"address","internalType":"address"},{"name":"value","type":"uint256","internalType":"uint256"}],"outputs":[{"name":"","type":"bool","internalType":"bool"}],"stateMutability":"nonpayable"},{"type":"function","name":"transferOwnership","inputs":[{"name":"newOwner","type":"address","internalType":"address"}],"outputs":[],"stateMutability":"nonpayable"},{"type":"function","name":"tvlCap","inputs":[],"outputs":[{"name":"","type":"uint256","internalType":"uint256"}],"stateMutability":"view"},{"type":"function","name":"uniswapQuoter","inputs":[],"outputs":[{"name":"","type":"address","internalType":"contract IQuoterV2"}],"stateMutability":"view"},{"type":"function","name":"uniswapRouter","inputs":[],"outputs":[{"name":"","type":"address","internalType":"contract ISwapRouter02"}],"stateMutability":"view"},{"type":"function","name":"unpause","inputs":[],"outputs":[],"stateMutability":"nonpayable"},{"type":"function","name":"upgradeToAndCall","inputs":[{"name":"newImplementation","type":"address","internalType":"address"},{"name":"data","type":"bytes","internalType":"bytes"}],"outputs":[],"stateMutability":"payable"},{"type":"function","name":"userDepositTime","inputs":[{"name":"","type":"address","internalType":"address"}],"outputs":[{"name":"","type":"uint256","internalType":"uint256"}],"stateMutability":"view"},{"type":"function","name":"userPrincipal","inputs":[{"name":"","type":"address","internalType":"address"}],"outputs":[{"name":"","type":"uint256","internalType":"uint256"}],"stateMutability":"view"},{"type":"function","name":"withdraw","inputs":[{"name":"assets","type":"uint256","internalType":"uint256"},{"name":"receiver","type":"address","internalType":"address"},{"name":"owner","type":"address","internalType":"address"}],"outputs":[{"name":"","type":"uint256","internalType":"uint256"}],"stateMutability":"nonpayable"},{"type":"event","name":"Approval","inputs":[{"name":"owner","type":"address","indexed":true,"internalType":"address"},{"name":"spender","type":"address","indexed":true,"internalType":"address"},{"name":"value","type":"uint256","indexed":false,"internalType":"uint256"}],"anonymous":false},{"type":"event","name":"Deposit","inputs":[{"name":"sender","type":"address","indexed":true,"internalType":"address"},{"name":"owner","type":"address","indexed":true,"internalType":"address"},{"name":"assets","type":"uint256","indexed":false,"internalType":"uint256"},{"name":"shares","type":"uint256","indexed":false,"internalType":"uint256"}],"anonymous":false},{"type":"event","name":"EmergencyPaused","inputs":[],"anonymous":false},{"type":"event","name":"FeesClaimed","inputs":[{"name":"amount","type":"uint256","indexed":false,"internalType":"uint256"}],"anonymous":false},{"type":"event","name":"Initialized","inputs":[{"name":"version","type":"uint64","indexed":false,"internalType":"uint64"}],"anonymous":false},{"type":"event","name":"OwnershipTransferred","inputs":[{"name":"previousOwner","type":"address","indexed":true,"internalType":"address"},{"name":"newOwner","type":"address","indexed":true,"internalType":"address"}],"anonymous":false},{"type":"event","name":"Rebalanced","inputs":[{"name":"from","type":"address","indexed":true,"internalType":"address"},{"name":"to","type":"address","indexed":true,"internalType":"address"},{"name":"amount","type":"uint256","indexed":false,"internalType":"uint256"}],"anonymous":false},{"type":"event","name":"Transfer","inputs":[{"name":"from","type":"address","indexed":true,"internalType":"address"},{"name":"to","type":"address","indexed":true,"internalType":"address"},{"name":"value","type":"uint256","indexed":false,"internalType":"uint256"}],"anonymous":false},{"type":"event","name":"TvlCapUpdated","inputs":[{"name":"newCap","type":"uint256","indexed":false,"internalType":"uint256"}],"anonymous":false},{"type":"event","name":"Unpaused","inputs":[],"anonymous":false},{"type":"event","name":"Upgraded","inputs":[{"name":"implementation","type":"address","indexed":true,"internalType":"address"}],"anonymous":false},{"type":"event","name":"Withdraw","inputs":[{"name":"sender","type":"address","indexed":true,"internalType":"address"},{"name":"receiver","type":"address","indexed":true,"internalType":"address"},{"name":"owner","type":"address","indexed":true,"internalType":"address"},{"name":"assets","type":"uint256","indexed":false,"internalType":"uint256"},{"name":"shares","type":"uint256","indexed":false,"internalType":"uint256"}],"anonymous":false},{"type":"error","name":"AddressEmptyCode","inputs":[{"name":"target","type":"address","internalType":"address"}]},{"type":"error","name":"ContractNotPaused","inputs":[]},{"type":"error","name":"ContractPaused","inputs":[]},{"type":"error","name":"ERC1967InvalidImplementation","inputs":[{"name":"implementation","type":"address","internalType":"address"}]},{"type":"error","name":"ERC1967NonPayable","inputs":[]},{"type":"error","name":"ERC20InsufficientAllowance","inputs":[{"name":"spender","type":"address","internalType":"address"},{"name":"allowance","type":"uint256","internalType":"uint256"},{"name":"needed","type":"uint256","internalType":"uint256"}]},{"type":"error","name":"ERC20InsufficientBalance","inputs":[{"name":"sender","type":"address","internalType":"address"},{"name":"balance","type":"uint256","internalType":"uint256"},{"name":"needed","type":"uint256","internalType":"uint256"}]},{"type":"error","name":"ERC20InvalidApprover","inputs":[{"name":"approver","type":"address","internalType":"address"}]},{"type":"error","name":"ERC20InvalidReceiver","inputs":[{"name":"receiver","type":"address","internalType":"address"}]},{"type":"error","name":"ERC20InvalidSender","inputs":[{"name":"sender","type":"address","internalType":"address"}]},{"type":"error","name":"ERC20InvalidSpender","inputs":[{"name":"spender","type":"address","internalType":"address"}]},{"type":"error","name":"ERC4626ExceededMaxDeposit","inputs":[{"name":"receiver","type":"address","internalType":"address"},{"name":"assets","type":"uint256","internalType":"uint256"},{"name":"max","type":"uint256","internalType":"uint256"}]},{"type":"error","name":"ERC4626ExceededMaxMint","inputs":[{"name":"receiver","type":"address","internalType":"address"},{"name":"shares","type":"uint256","internalType":"uint256"},{"name":"max","type":"uint256","internalType":"uint256"}]},{"type":"error","name":"ERC4626ExceededMaxRedeem","inputs":[{"name":"owner","type":"address","internalType":"address"},{"name":"shares","type":"uint256","internalType":"uint256"},{"name":"max","type":"uint256","internalType":"uint256"}]},{"type":"error","name":"ERC4626ExceededMaxWithdraw","inputs":[{"name":"owner","type":"address","internalType":"address"},{"name":"assets","type":"uint256","internalType":"uint256"},{"name":"max","type":"uint256","internalType":"uint256"}]},{"type":"error","name":"FailedCall","inputs":[]},{"type":"error","name":"InsufficientDeposit","inputs":[]},{"type":"error","name":"InsufficientSlippage","inputs":[]},{"type":"error","name":"InvalidInitialization","inputs":[]},{"type":"error","name":"NoFeesToClaim","inputs":[]},{"type":"error","name":"NotInitializing","inputs":[]},{"type":"error","name":"OwnableInvalidOwner","inputs":[{"name":"owner","type":"address","internalType":"address"}]},{"type":"error","name":"OwnableUnauthorizedAccount","inputs":[{"name":"account","type":"address","internalType":"address"}]},{"type":"error","name":"RebalanceNotProfitable","inputs":[]},{"type":"error","name":"ReentrancyGuardReentrantCall","inputs":[]},{"type":"error","name":"SafeERC20FailedOperation","inputs":[{"name":"token","type":"address","internalType":"address"}]},{"type":"error","name":"TvlCapExceeded","inputs":[]},{"type":"error","name":"UUPSUnauthorizedCallContext","inputs":[]},{"type":"error","name":"UUPSUnsupportedProxiableUUID","inputs":[{"name":"slot","type":"bytes32","internalType":"bytes32"}]},{"type":"error","name":"WithdrawalLocked","inputs":[]}],"bytecode":{"object":"0x610180346200031d576001600160401b0390601f62004a1438819003918201601f191683019291908484118385101762000321578160e092849260409687528339810103126200031d57620000548162000335565b90620000636020820162000335565b926200007181830162000335565b94620000806060840162000335565b956200008f6080850162000335565b95620000ac60c0620000a460a0880162000335565b960162000335565b953060805260a05260c05260018060a01b0380911660e052806101009716875280610120961686528061014094168452610160941684527ff0c57e16840df040f15088dc2f81fe391c3923bec73e23a9662efc9c229c6a009081549060ff82851c166200030c578080831603620002c7575b50505051926146c994856200034b86396080518581816122db01526125e1015260a05185818161043e015281816104cc015281816106b001528181610ad001528181610b4b01528181610d1e0152818161127c01528181611334015281816113940152818161154e015281816116870152818161176201528181611d3e01528181611fe001528181612476015281816124bd015281816128910152818161303301526132b9015260c051858181610672015281816107f401528181610ce6015281816115fb015281816116da015281816117e501528181611d6b01528181612020015281816123ec01526132e4015260e0518581816106330152818161083901528181610ca20152818161158d01528181611c3001528181612088015281816123b20152818161290301528181612f10015261330801525184818161164801528181611eaf01528181613ded01528181613e850152613f7e0152518381816127b301528181613a060152613a9801525182818161106301528181611727015281816117a701528181613c9d01528181613d4f015261408001525181818161281b0152613ad60152f35b6001600160401b0319909116811790915581519081527fc7f505b2f371ae2175ee4913f4499e1f2633a7b5936321eed1cdaeb6115181d290602090a15f80806200011e565b835163f92ee8a960e01b8152600490fd5b5f80fd5b634e487b7160e01b5f52604160045260245ffd5b51906001600160a01b03821682036200031d5756fe60806040526004361015610011575f80fd5b5f803560e01c806301e1d11414612c8357806306fdde0314612bbd57806307a2d13a146127e2578063095ea7b314612b0e5780630a28a47714612af057806318160ddd14612ac757806323b872dd14612aa5578063313ce56714612a59578063345210dd14612a3157806338d52e0f146129fd5780633f23fa1a146129e05780633f4ba83a1461284a578063402d267d146107d957806342d9a69c146128055780634b1533b2146127e75780634cdad506146127e25780634db4a3521461279d5780634f1ef2861461256657806351858e271461234557806352d1902d146122c85780635c975abb146122a257806362dab626146122695780636e553f6514611f4757806370a082311461038e578063715018a614611ede578063735de9f714611e995780637d7c2a1c14611bbd5780638129fc1c146112ab57806389a30271146112665780638da5cb5b1461123157806394bf804d1461117157806395d89b4114611092578063984622461461104d578063a06880c014610ff4578063a9059cbb14610fc2578063ad3cb1cc14610f78578063b3d7f6b914610f59578063b460af9414610986578063ba08765214610868578063c0b10b7914610823578063c54e44eb146107de578063c63d75b6146107d9578063c6e6f592146102f3578063ce96cb7714610793578063cf27e06f1461075b578063d294f093146103ba578063d905777e1461038e578063dd0290e214610340578063dd62ed3e146102f8578063ef8b30f7146102f3578063f2fde38b146102c65763f3a66b1214610256575f80fd5b346102c35761027661026736612d25565b9161027061365f565b5061399a565b60405180916020825260018060a01b0381511660208301526020810151604083015262ffffff60606102b6604084015160808387015260a0860190612c9d565b9201511660808301520390f35b80fd5b50346102c35760203660031901126102c3576102f06102e3612cf9565b6102eb6138e0565b6135ee565b80f35b612ebb565b50346102c35760403660031901126102c357610312612cf9565b61032361031d612d0f565b91612e4e565b9060018060a01b03165f52602052602060405f2054604051908152f35b50346102c35760203660031901126102c3577f2923cecec41b7140eaf657a035af4abb23ed61d16b1fc20a986838eb3ad99bd060206004356103806138e0565b80600455604051908152a180f35b50346102c35760203660031901126102c35760206103b26103ad612cf9565b613139565b604051908152f35b50346102c357806003193601126102c3576103d36138e0565b6103db6141aa565b6103e3612ed9565b60025480821115610749576103f791613290565b6105dc9081810291818304149015171561073557612710900460035460ff8160a01c165f146105ff57506040516370a0823160e01b815230600482015281906020816024817f00000000000000000000000000000000000000000000000000000000000000006001600160a01b03165afa801561057657839185916105c6575b5010610581576104c8905b5f805160206145d48339815191525460405163a9059cbb60e01b81526001600160a01b039182166004820152602481018390529260209184918290889082906044820190565b03927f0000000000000000000000000000000000000000000000000000000000000000165af18015610576577f83db9dc084973306ecd0b0f10cb495b81dd9ddcc135eb7934d2723bcabc8f4c39360209361052b92610549575b50600254613114565b600255604051908152a160015f805160206146548339815191525580f35b61056890853d871161056f575b6105608183612e12565b810190613121565b505f610522565b503d610556565b6040513d86823e3d90fd5b60405162461bcd60e51b815260206004820152601a60248201527f496e73756666696369656e74205553444320666f7220666565730000000000006044820152606490fd5b9150506020813d6020116105f7575b816105e260209383612e12565b810103126105f3578290515f610477565b5f80fd5b3d91506105d5565b604051631a4ca37b60e21b81526001600160a01b0391821660048201526024810183905230604482015290602082606481877f000000000000000000000000000000000000000000000000000000000000000086165af18015610576578490610701575b6104c8925080918060035416917f00000000000000000000000000000000000000000000000000000000000000009282841614806106f8575b6106a9575b505050610482565b6106f093507f0000000000000000000000000000000000000000000000000000000000000000906106db81838661399a565b92835116916020604085015194015194613f30565b5f80806106a1565b5080151561069c565b506020823d60201161072d575b8161071b60209383612e12565b810103126105f3576104c89151610663565b3d915061070e565b634e487b7160e01b82526011600452602482fd5b60405163211b631760e21b8152600490fd5b50346102c35760203660031901126102c3576020906040906001600160a01b03610783612cf9565b1681528083522054604051908152f35b50346102c35760203660031901126102c3576020906103b2906040906001600160a01b036107bf612cf9565b1681525f80516020614594833981519152845220546136ba565b612d5a565b50346102c357806003193601126102c3576040517f00000000000000000000000000000000000000000000000000000000000000006001600160a01b03168152602090f35b50346102c357806003193601126102c3576040517f00000000000000000000000000000000000000000000000000000000000000006001600160a01b03168152602090f35b50346102c35761087736612e86565b61088081613139565b8084116109525750826108946020946136ba565b9260018060a01b03906108b183838616958633036109425761424f565b5f805160206146148339815191525460405163a9059cbb60e01b888201526001600160a01b03831660248201526044810187905261090791841661090282606481015b03601f198101845283612e12565b614496565b604051928584528684015216907ffbde797d201c681b91056529119e0b02407c7bb96a4a2c75c01fc9667232c8db60403392a4604051908152f35b61094d82338361375f565b61424f565b604051632e52afbb60e21b81526001600160a01b039290921660048301526024820193909352604481019290925250606490fd5b50346102c35761099536612e86565b9091926109a06141aa565b8315610f14576001600160a01b0393838516916109be8315156130d5565b858416938415610edf578482526020968288526040832054620151808101809111610ecb57421080610ebb575b610ea9578583525f8051602061459483398151915288526040832054968715610e6c57610a17886136ba565b92610a21866136f1565b988911610e315788610a329161424f565b849287855260018a526040852054808211610db5575b50610a679088865260018b52610a6287604088205461325f565b613272565b87855260018a52604085208054808311610dad575b82610a8691613290565b90556002548111610da357610a9d90600254613290565b6002555b8860035460ff8160a01c165f14610c6b5750506040516370a0823160e01b815230600482015283908a816024817f000000000000000000000000000000000000000000000000000000000000000088165afa908115610c60578691610c33575b5010610bee57918891610b4794935b60405163a9059cbb60e01b81526001600160a01b039091166004820152602481019290925290938491908290859082906044820190565b03927f0000000000000000000000000000000000000000000000000000000000000000165af1908115610be25750610bc5575b5060405190815283858201527ffbde797d201c681b91056529119e0b02407c7bb96a4a2c75c01fc9667232c8db60403392a460015f8051602061465483398151915255604051908152f35b610bdb90863d881161056f576105608183612e12565b505f610b7a565b604051903d90823e3d90fd5b60405162461bcd60e51b8152600481018a9052601960248201527f496e73756666696369656e7420555344432062616c616e6365000000000000006044820152606490fd5b90508a81813d8311610c59575b610c4a8183612e12565b810103126105f357515f610b01565b503d610c40565b6040513d88823e3d90fd5b604051631a4ca37b60e21b81529084166001600160a01b0316600482015260248101949094523060448501529193929182606481867f000000000000000000000000000000000000000000000000000000000000000089165af1918215610d9857908992918492610d65575b5093610b4794828260035416907f00000000000000000000000000000000000000000000000000000000000000009184831614610d16575b5050610b10565b610d5d9294507f0000000000000000000000000000000000000000000000000000000000000000610d4882828561399a565b91858351169188604085015194015194613f30565b915f80610d0f565b8381949293503d8311610d91575b610d7d8183612e12565b810103126105f35790518891610b47610cd7565b503d610d73565b6040513d85823e3d90fd5b5083600255610aa1565b915081610a7c565b81610dc1929550613290565b6105dc90818102918183041490151715610e1d57610dea84610a6288612710610a67950461325f565b93610e17610e01610dfb878a613290565b96613728565b855f805160206145d483398151915254166141d9565b90610a48565b634e487b7160e01b85526011600452602485fd5b60405162461bcd60e51b8152600481018b90526013602482015272496e73756666696369656e742073686172657360681b6044820152606490fd5b60405162461bcd60e51b8152600481018a905260156024820152744e6f2073686172657320746f20776974686472617760581b6044820152606490fd5b604051630c8445b760e21b8152600490fd5b5060ff60035460a01c16156109eb565b634e487b7160e01b84526011600452602484fd5b60405162461bcd60e51b815260206004820152600d60248201526c24b73b30b634b21037bbb732b960991b6044820152606490fd5b60405162461bcd60e51b815260206004820152601b60248201527f43616e6e6f74207769746864726177207a65726f2061737365747300000000006044820152606490fd5b50346102c35760203660031901126102c35760206103b2600435613683565b50346102c357806003193601126102c357610fbe604051610f9881612ddc565b60058152640352e302e360dc1b6020820152604051918291602083526020830190612c9d565b0390f35b50346102c35760403660031901126102c357610fe9610fdf612cf9565b60243590336137f7565b602060405160018152f35b50346102c357806003193601126102c35761100d61329d565b9061102f6040959495519586951515865260a0602087015260a0860190612c9d565b6001600160a01b039093166040850152606084015260808301520390f35b50346102c357806003193601126102c3576040517f00000000000000000000000000000000000000000000000000000000000000006001600160a01b03168152602090f35b50346102c357806003193601126102c3576040519080825f805160206145b48339815191529283546110c38161309d565b93848452602095600192876001821691825f1461114d575050600114611107575b5050506110f392500383612e12565b610fbe604051928284938452830190612c9d565b8152859250905f805160206146348339815191525b8583106111355750506110f393508201015f80806110e4565b8054838901850152879450869390920191810161111c565b9350945050506110f394915060ff191682840152151560051b8201015f80806110e4565b50346102c35760403660031901126102c3576020600435611190612d0f565b9061119a81613683565b5f80516020614614833981519152546040516323b872dd60e01b868201523360248201523060448201526064810183905291936001600160a01b039290916111ec9190841661090282608481016108f4565b6111f683826141d9565b604051928484528584015216907fdcbc1c05240f31ff3ad067ef1ee35ce4997762752e3a095284754544f4c709d760403392a3604051908152f35b50346102c357806003193601126102c3575f805160206145d4833981519152546040516001600160a01b039091168152602090f35b50346102c357806003193601126102c3576040517f00000000000000000000000000000000000000000000000000000000000000006001600160a01b03168152602090f35b50346102c357806003193601126102c3575f80516020614674833981519152546001600160401b03811680159081611bad575b6001149081611ba3575b159081611b9a575b50611b885760016001600160401b03198216175f805160206146748339815191525560ff8160401c1615611b5c575b611327614327565b61132f614327565b6113617f00000000000000000000000000000000000000000000000000000000000000006001600160a01b031661441d565b9015611b54575b5f8051602061461483398151915280546001600160a81b03191660a09290921b60ff60a01b16919091177f00000000000000000000000000000000000000000000000000000000000000006001600160a01b0316179055604051916113cc83612ddc565b601383527214dd5c195c9b1a5b9ac81554d10815985d5b1d606a1b6020840152604051916113f983612ddc565b60068352651cdd5c1554d160d21b6020840152611414614327565b61141c614327565b83516001600160401b038111611a3c576114435f805160206145748339815191525461309d565b601f8111611ae4575b506020601f8211600114611a5b5783949582939492611a50575b50508160011b915f199060031b1c1916175f80516020614574833981519152555b82516001600160401b038111611a3c576114ae5f805160206145b48339815191525461309d565b601f81116119c8575b506020601f821160011461194057839482939492611935575b50508160011b915f199060031b1c1916175f805160206145b4833981519152555b6114f9614327565b611501614327565b61150a336135ee565b611512614327565b61151a614327565b611522614327565b60015f80516020614654833981519152556402540be4006004908155600380546001600160a81b0319167f00000000000000000000000000000000000000000000000000000000000000006001600160a01b0390811691821790925560405163095ea7b360e01b81527f00000000000000000000000000000000000000000000000000000000000000009092169282018390525f1960248301526020908290604490829088905af1801561057657611916575b5060405163095ea7b360e01b815260048101919091525f196024820152602081604481867f00000000000000000000000000000000000000000000000000000000000000006001600160a01b03165af18015610d98576118f7575b5060405163095ea7b360e01b81526001600160a01b037f00000000000000000000000000000000000000000000000000000000000000008116600483018190525f19602484015291906020908290604490829088907f0000000000000000000000000000000000000000000000000000000000000000165af18015610576576118d8575b5060405163095ea7b360e01b815260048101919091525f196024820152602081604481867f00000000000000000000000000000000000000000000000000000000000000006001600160a01b03165af18015610d98576118b9575b5060405163095ea7b360e01b81526001600160a01b037f0000000000000000000000000000000000000000000000000000000000000000811660048301525f1960248301526020908290604490829087907f0000000000000000000000000000000000000000000000000000000000000000165af18015610d985761189a575b5060405163095ea7b360e01b81526001600160a01b037f0000000000000000000000000000000000000000000000000000000000000000811660048301525f1960248301529091906020908390604490829087907f0000000000000000000000000000000000000000000000000000000000000000165af1918215610d985760ff9261187b575b5060401c16156118235780f35b68ff0000000000000000195f8051602061467483398151915254165f80516020614674833981519152557fc7f505b2f371ae2175ee4913f4499e1f2633a7b5936321eed1cdaeb6115181d2602060405160018152a180f35b6118939060203d60201161056f576105608183612e12565b505f611816565b6118b29060203d60201161056f576105608183612e12565b505f61178f565b6118d19060203d60201161056f576105608183612e12565b505f61170f565b6118f09060203d60201161056f576105608183612e12565b505f6116b4565b61190f9060203d60201161056f576105608183612e12565b505f611630565b61192e9060203d60201161056f576105608183612e12565b505f6115d5565b015190505f806114d0565b5f805160206145b483398151915284525f8051602061463483398151915290845b601f19841681106119b05750600193949583601f19811610611998575b505050811b015f805160206145b4833981519152556114f1565b01515f1960f88460031b161c191690555f808061197e565b9091602060018192858a015181550193019101611961565b5f805160206145b48339815191528452601f820160051c5f80516020614634833981519152019060208310611a27575b601f0160051c5f8051602061463483398151915201905b818110611a1c57506114b7565b848155600101611a0f565b5f8051602061463483398151915291506119f8565b634e487b7160e01b83526041600452602483fd5b015190505f80611466565b5f8051602061457483398151915284525f8051602061455483398151915290845b601f1984168110611acc575060019394959683601f19811610611ab4575b505050811b015f8051602061457483398151915255611487565b01515f1960f88460031b161c191690555f8080611a9a565b9091602060018192858b015181550193019101611a7c565b5f805160206145748339815191528452601f820160051c5f805160206145548339815191520160208310611b40575b601f820160051c5f80516020614554833981519152018110611b35575061144c565b848155600101611b13565b505f80516020614554833981519152611b13565b506012611368565b68ffffffffffffffffff19811668010000000000000001175f805160206146748339815191525561131f565b60405163f92ee8a960e01b8152600490fd5b9050155f6112f0565b303b1591506112e8565b604083901c60ff161591506112de565b50346102c357806003193601126102c357611bd66138e0565b611bde6141aa565b600380549060ff8260a01c16611e8757611bf661329d565b50509291905015611e7257604051631a4ca37b60e21b81526001600160a01b0393841660048201525f1960248201523060448201526020907f000000000000000000000000000000000000000000000000000000000000000085169082816064818a865af1908115611e67578391611e3e575b505085858454166040516370a0823160e01b81523060048201528481602481855afa908115610d98578391611e0d575b50809688811692808403611dd9575b505085546001600160a01b03198116831787559050833b15611dd55760405163617ba03760e01b8152908316919091176001600160a01b03166004820152602481018690523060448201525f60648201529181908390608490829084905af1918215611dc8578692611dad575b50507f4ce94e8bd94f62017197ba464f629a366572732970f6fe47c76f97bb53f76303925416937f000000000000000000000000000000000000000000000000000000000000000081811686145f14611da857507f00000000000000000000000000000000000000000000000000000000000000005b6040519485521692a360015f805160206146548339815191525580f35b611d8b565b611db8919250612d7f565b611dc45783855f611d15565b8480fd5b50604051903d90823e3d90fd5b8280fd5b611e049398508282611dea9261399a565b9089885416928a8351169188604085015194015194613f30565b945f8080611ca8565b809350858092503d8311611e37575b611e268183612e12565b810103126105f3578791515f611c99565b503d611e1c565b813d8311611e60575b611e518183612e12565b810103126105f357815f611c69565b503d611e47565b6040513d89823e3d90fd5b6040516001622abbb960e11b03198152600490fd5b60405163ab35696f60e01b8152600490fd5b50346102c357806003193601126102c3576040517f00000000000000000000000000000000000000000000000000000000000000006001600160a01b03168152602090f35b50346102c357806003193601126102c357611ef76138e0565b5f805160206145d483398151915280546001600160a01b031981169091555f906001600160a01b03167f8be0079c531659141344cd1fd0a4f28419497f9722a3daafe3b4186f6b6457e08280a380f35b50346102c35760403660031901126102c357600435611f64612d0f565b611f6c6141aa565b60ff60035460a01c1661222f5781156121ea576001600160a01b039181831691611f978315156130d5565b620f424082106121d857611fb282611fad612ed9565b613114565b600454106121c6576040516323b872dd60e01b815233600482015230602482015260448101839052602095907f0000000000000000000000000000000000000000000000000000000000000000908781606481868b87165af18015610d98576121a9575b50839086600354167f0000000000000000000000000000000000000000000000000000000000000000908882161461217c575b505061205484613728565b958583528288524260408420556001885260408320612074868254613114565b905561208285600254613114565b600255807f000000000000000000000000000000000000000000000000000000000000000016906003541691813b156121785760405163617ba03760e01b81526001600160a01b0393909316600484015260248301523060448301525f606483015282908290608490829084905af1801561216d5790869291612155575b505061210b916141d9565b60405190815282848201527fdcbc1c05240f31ff3ad067ef1ee35ce4997762752e3a095284754544f4c709d760403392a360015f8051602061465483398151915255604051908152f35b81925061216190612d7f565b6102c357808591612100565b6040513d84823e3d90fd5b8380fd5b6121a2925061218c86828461399a565b908689835116918b604085015194015194613f30565b5f80612049565b6121bf90883d8a1161056f576105608183612e12565b505f612016565b60405163161ca4c760e31b8152600490fd5b60405163070f6eed60e11b8152600490fd5b60405162461bcd60e51b815260206004820152601a60248201527f43616e6e6f74206465706f736974207a65726f206173736574730000000000006044820152606490fd5b60405162461bcd60e51b815260206004820152601260248201527110dbdb9d1c9858dd081a5cc81c185d5cd95960721b6044820152606490fd5b50346102c35760203660031901126102c3576020906040906001600160a01b03612291612cf9565b168152600183522054604051908152f35b50346102c357806003193601126102c357602060ff60035460a01c166040519015158152f35b50346102c357806003193601126102c3577f00000000000000000000000000000000000000000000000000000000000000006001600160a01b031630036123335760206040517f360894a13ba1a3210667c828492db98dca3e2076cc3735a920a3ca505d382bbc8152f35b60405163703e46dd60e11b8152600490fd5b50346102c357806003193601126102c35761235e6138e0565b60035460ff8160a01c16611e875760ff60a01b198116600160a01b17600355604051631a4ca37b60e21b81526001600160a01b0391821660048201525f1960248201523060448201526020908181606481877f000000000000000000000000000000000000000000000000000000000000000088165af190811561057657829161253d575b505081600354167f00000000000000000000000000000000000000000000000000000000000000009083821680911461243f575b847f4cb3183d0bf66f9634b15cfc3539fdddc96c2c9324848af89b56586a6739fec48180a180f35b82602491604051928380926370a0823160e01b82523060048301525afa908115612532578591612505575b50806124b7575b5050507f0000000000000000000000000000000000000000000000000000000000000000166bffffffffffffffffffffffff60a01b60035416176003555f808080612417565b6124fc927f0000000000000000000000000000000000000000000000000000000000000000916124e881848661399a565b928684511692604085015194015194613f30565b505f8080612471565b90508281813d831161252b575b61251c8183612e12565b810103126105f357515f61246a565b503d612512565b6040513d87823e3d90fd5b813d831161255f575b6125508183612e12565b810103126105f357805f6123e3565b503d612546565b5060403660031901126102c35761257b612cf9565b60249182356001600160401b0381116127995736602382011215612799578060040135926125a884612e33565b6125b56040519182612e12565b848152602094858201933688838301011161276057818692898993018737830101526001600160a01b037f0000000000000000000000000000000000000000000000000000000000000000811630811490811561276b575b506123335761261a6138e0565b6040516352d1902d60e01b81529083169580826004818a5afa9182918793612737575b505061265b57604051634c9c8ce360e01b8152600481018790528790fd5b8590877f360894a13ba1a3210667c828492db98dca3e2076cc3735a920a3ca505d382bbc918281036127225750843b1561270c575080546001600160a01b031916821790556040518592917fbc7cd75a20ee27fd9adebab32041f755214dbc6bffa90cc0225b39da2e5c2d3b8480a28151156126ef57506126eb9382915190845af46126e56143ee565b916144f0565b5080f35b9350505050346126fd575080f35b63b398979f60e01b8152600490fd5b604051634c9c8ce360e01b815260048101849052fd5b60405190632a87526960e21b82526004820152fd5b9080929350813d8311612764575b61274f8183612e12565b810103126127605751905f8061263d565b8580fd5b503d612745565b9050817f360894a13ba1a3210667c828492db98dca3e2076cc3735a920a3ca505d382bbc541614155f61260d565b5080fd5b50346102c357806003193601126102c3576040517f00000000000000000000000000000000000000000000000000000000000000006001600160a01b03168152602090f35b612cdb565b50346102c357806003193601126102c3576020600254604051908152f35b50346102c357806003193601126102c3576040517f00000000000000000000000000000000000000000000000000000000000000006001600160a01b03168152602090f35b50346105f3575f3660031901126105f3576128636138e0565b60035460ff8160a01c16156129ce5760ff60a01b19166003556040516370a0823160e01b81523060048201527f0000000000000000000000000000000000000000000000000000000000000000906001600160a01b036020826024818487165afa91821561298f575f9261299a575b5081612901575b837fa45f47fdea8a1efdd9029a5691c7f759c32b7c698632b563573e155625d169338180a180f35b7f00000000000000000000000000000000000000000000000000000000000000001691823b156105f35760405163617ba03760e01b81526001600160a01b0391909116600482015260248101919091523060448201525f6064820181905290918290608490829084905af1801561298f5761297e575b80806128d9565b6129889150612d7f565b5f80612977565b6040513d5f823e3d90fd5b9091506020813d6020116129c6575b816129b660209383612e12565b810103126105f35751905f6128d2565b3d91506129a9565b60405163dcdde9dd60e01b8152600490fd5b346105f3575f3660031901126105f3576020600454604051908152f35b346105f3575f3660031901126105f3575f80516020614614833981519152546040516001600160a01b039091168152602090f35b346105f3575f3660031901126105f3576003546040516001600160a01b039091168152602090f35b346105f3575f3660031901126105f35760ff5f805160206146148339815191525460a01c1660ff8111612a9157602090604051908152f35b634e487b7160e01b5f52601160045260245ffd5b346105f357610fe9612ab636612d25565b91612ac283338361375f565b6137f7565b346105f3575f3660031901126105f35760205f805160206145f483398151915254604051908152f35b346105f35760203660031901126105f35760206103b26004356136f1565b346105f35760403660031901126105f357612b27612cf9565b602435903315612ba5576001600160a01b0316908115612b8d57612b4a33612e4e565b825f526020528060405f20556040519081527f8c5be1e5ebec7d5bd14f71427d1e84f3dd0314c0f7b2291e5b200ac8c7c3b92560203392a3602060405160018152f35b604051634a1406b160e11b81525f6004820152602490fd5b60405163e602df0560e01b81525f6004820152602490fd5b346105f3575f3660031901126105f3576040515f805160206145748339815191528054825f612beb8361309d565b92838352602094600191866001821691825f14612c61575050600114612c1a575b50506110f392500383612e12565b8592505f525f80516020614554833981519152905f915b858310612c495750506110f393508201018580612c0c565b80548389018501528794508693909201918101612c31565b92509350506110f394915060ff191682840152151560051b8201018580612c0c565b346105f3575f3660031901126105f35760206103b2612ed9565b91908251928382525f5b848110612cc7575050825f602080949584010152601f8019910116010190565b602081830181015184830182015201612ca7565b346105f35760203660031901126105f35760206103b26004356136ba565b600435906001600160a01b03821682036105f357565b602435906001600160a01b03821682036105f357565b60609060031901126105f3576001600160a01b039060043582811681036105f3579160243590811681036105f3579060443590565b346105f35760203660031901126105f357612d73612cf9565b5060206040515f198152f35b6001600160401b038111612d9257604052565b634e487b7160e01b5f52604160045260245ffd5b608081019081106001600160401b03821117612d9257604052565b60a081019081106001600160401b03821117612d9257604052565b604081019081106001600160401b03821117612d9257604052565b606081019081106001600160401b03821117612d9257604052565b90601f801991011681019081106001600160401b03821117612d9257604052565b6001600160401b038111612d9257601f01601f191660200190565b6001600160a01b03165f9081527f52c63247e1f47db19d5ce0460030c497f067ca4cebf71ba98eeadabe20bace016020526040902090565b60609060031901126105f357600435906001600160a01b039060243582811681036105f3579160443590811681036105f35790565b346105f35760203660031901126105f35760206103b2600435613728565b60035460ff8160a01c16613017576040516335ea6a7560e01b81526001600160a01b0391821660048201526101e0919082816024817f000000000000000000000000000000000000000000000000000000000000000086165afa90811561298f575f935f92612fd6575b5050602090602460405180948193630ed1279f60e11b8352306004840152165afa90811561298f575f91612f98575b50612f94906001600160801b036b033b2e3c9fd0803ce800000093169061325f565b0490565b90506020813d602011612fce575b81612fb360209383612e12565b810103126105f357516b033b2e3c9fd0803ce8000000612f72565b3d9150612fa6565b60209450612ff99250803d10613010575b612ff18183612e12565b810190613187565b50505050505099975050505050505092905f612f43565b503d612fe7565b506040516370a0823160e01b81523060048201526020816024817f00000000000000000000000000000000000000000000000000000000000000006001600160a01b03165afa90811561298f575f9161306e575090565b90506020813d602011613095575b8161308960209383612e12565b810103126105f3575190565b3d915061307c565b90600182811c921680156130cb575b60208310146130b757565b634e487b7160e01b5f52602260045260245ffd5b91607f16916130ac565b156130dc57565b60405162461bcd60e51b815260206004820152601060248201526f24b73b30b634b2103932b1b2b4bb32b960811b6044820152606490fd5b91908201809211612a9157565b908160209103126105f3575180151581036105f35790565b6001600160a01b03165f9081525f80516020614594833981519152602052604090205490565b51906001600160801b03821682036105f357565b51906001600160a01b03821682036105f357565b90816101e09103126105f3578051916131a26020830161315f565b916131af6040820161315f565b916131bc6060830161315f565b916131c96080820161315f565b916131d660a0830161315f565b9160c081015164ffffffffff811681036105f3579160e082015161ffff811681036105f357916132096101008201613173565b916132176101208301613173565b916132256101408201613173565b916132336101608301613173565b91613241610180820161315f565b9161325c6101c06132556101a0850161315f565b930161315f565b90565b81810292918115918404141715612a9157565b811561327c570490565b634e487b7160e01b5f52601260045260245ffd5b91908203918211612a9157565b6003549060ff8260a01c166135b7576001600160a01b039182167f000000000000000000000000000000000000000000000000000000000000000080841682036135b157507f0000000000000000000000000000000000000000000000000000000000000000905b837f000000000000000000000000000000000000000000000000000000000000000016906040948551916335ea6a7560e01b9081845260048401526101e0918284602481885afa5f9481613583575b5061339e575050505050505f915161336b81612ddc565b602081527f4661696c656420746f206765742063757272656e7420617373657420646174616020820152905f905f905f90565b60248392895196879384928352891660048301525afa9283915f94613555575b5050613413575050505f91636461746160e01b8151916133dd83612df7565b602483527f4661696c656420746f2067657420616c7465726e6174697665206173736574206020840152820152905f905f905f90565b919290916127106001600160801b039182168181029290801590840483141715612a91576b033b2e3c9fd0803ce80000008093049416818102918183041490151715612a915704908282111561350357600a61346f8484613290565b106134b1576001945161348181612ddc565b601f81527f526562616c616e63696e6720776f756c642062652070726f66697461626c6500602082015293929190565b5f946c6966792067617320636f73747360981b8151916134d083612df7565b602d83527f41505920646966666572656e636520746f6f20736d616c6c20746f206a757374602084015282015293929190565b92505f936920657175616c2041505960b01b81519161352183612df7565b602a83527f43757272656e7420616c6c6f636174696f6e2068617320626574746572206f726020840152820152925f929190565b61356c929450803d1061301057612ff18183612e12565b505050505050505050505050915050915f806133be565b61359b919550843d861161301057612ff18183612e12565b505050505050505050505050915050935f613354565b90613305565b6040515f92506135c681612ddc565b601281527110dbdb9d1c9858dd081a5cc81c185d5cd95960721b6020820152905f905f905f90565b6001600160a01b03908116908115613647575f805160206145d483398151915280546001600160a01b031981168417909155167f8be0079c531659141344cd1fd0a4f28419497f9722a3daafe3b4186f6b6457e05f80a3565b604051631e4fbdf760e01b81525f6004820152602490fd5b6040519061366c82612da6565b5f6060838281528260208201528160408201520152565b61368b612ed9565b60018101809111612a91575f805160206145f4833981519152549060018201809211612a915761325c92614307565b6136c2612ed9565b60018101809111612a91575f805160206145f4833981519152549060018201809211612a915761325c92614355565b5f805160206145f48339815191525460018101809111612a9157613713612ed9565b9060018201809211612a915761325c92614307565b5f805160206145f48339815191525460018101809111612a915761374a612ed9565b9060018201809211612a915761325c92614355565b61376881612e4e565b9060018060a01b0380841692835f5260205260405f2054935f198510613791575b505050505050565b8585106137c65750811615612ba5578115612b8d576137af90612e4e565b905f526020520360405f20555f8080808080613789565b604051637dc7a0d960e11b81526001600160a01b039190911660048201526024810185905260448101869052606490fd5b916001600160a01b038084169283156138c857169283156138b057825f525f805160206145948339815191528060205260405f20549183831061387d575091806020927fddf252ad1be2c89b69c2b068fc378daa952ba7f163c4a11628f55a4df523b3ef94865f5284520360405f2055845f5260405f20818154019055604051908152a3565b60405163391434e360e21b81526001600160a01b0391909116600482015260248101929092525060448101829052606490fd5b60405163ec442f0560e01b81525f6004820152602490fd5b604051634b637e8f60e11b81525f6004820152602490fd5b5f805160206145d4833981519152546001600160a01b0316330361390057565b60405163118cdaa760e01b8152336004820152602490fd5b91908260809103126105f357815160208301519092906001600160a01b03811681036105f35791604082015163ffffffff811681036105f35760609092015190565b80516001600160a01b0390811683526020808301518216908401526040808301519084015260608083015162ffffff169084015260809182015116910152565b9092916139a561365f565b938115613eeb575f926040516139ba81612dc1565b6001600160a01b038281168252831660208201526040808201859052606460608301525f608083015251636352813560e11b8152906139fd90600483019061395a565b60808160a4815f7f00000000000000000000000000000000000000000000000000000000000000006001600160a01b03165af15f9181613ec7575b50613e54575b50604051613a4b81612dc1565b6001600160a01b0382811682528316602082015260408082018590526101f460608301525f608083015251636352813560e11b815290613a8f90600483019061395a565b60808160a4815f7f00000000000000000000000000000000000000000000000000000000000000006001600160a01b03165af15f9181613e30575b50613db9575b506040517f00000000000000000000000000000000000000000000000000000000000000006001600160a01b03169290613b0981612dc1565b6001600160a01b038381168252821660208201526040808201869052606460608301525f608083015251636352813560e11b815290613b4c90600483019061395a565b60808160a4815f885af15f9181613d95575b50613d14575b5060a4608092613bc09260405191613b7b83612dc1565b6001600160a01b03908116835216602082015260408082018790526101f460608301525f8583018190529051636352813560e11b81529586948593600485019061395a565b5af15f9181613ce0575b50613c69575b508115613c2d576126ac80820291820403612a9157612710900411613bf157565b60405162461bcd60e51b8152602060048201526014602482015273526f757465206f757470757420746f6f206c6f7760601b6044820152606490fd5b60405162461bcd60e51b8152602060048201526014602482015273139bc81d985b1a59081c9bdd5d1948199bdd5b9960621b6044820152606490fd5b82811115613bd05791509250806040516101f4602082015260208152613c8e81612ddc565b60405191613c9b83612da6565b7f00000000000000000000000000000000000000000000000000000000000000006001600160a01b03168352602083015260408201526101f46060820152925f613bd0565b613d0391925060803d608011613d0d575b613cfb8183612e12565b810190613918565b505050905f613bca565b503d613cf1565b85811115613b645794509550613bc060a4608092866040516064602082015260208152613d4081612ddc565b60405191613d4d83612da6565b7f00000000000000000000000000000000000000000000000000000000000000006001600160a01b031683526020830152604082015260646060820152989093509150613b64565b613daf91925060803d608011613d0d57613cfb8183612e12565b505050905f613b5e565b84811115613ad05793509450826040516101f4602082015260208152613dde81612ddc565b60405191613deb83612da6565b7f00000000000000000000000000000000000000000000000000000000000000006001600160a01b03168352602083015260408201526101f46060820152945f613ad0565b613e4a91925060803d608011613d0d57613cfb8183612e12565b505050905f613aca565b8015613a3e5793509450826040516064602082015260208152613e7681612ddc565b60405191613e8383612da6565b7f00000000000000000000000000000000000000000000000000000000000000006001600160a01b031683526020830152604082015260646060820152945f613a3e565b613ee191925060803d608011613d0d57613cfb8183612e12565b505050905f613a38565b60405162461bcd60e51b815260206004820152601860248201527f43616e6e6f7420726f757465207a65726f20616d6f756e7400000000000000006044820152606490fd5b9193949290926126de90818102918183041490151715612a91576127109004928580516020978891810103126105f3578601519062ffffff948583168093036105f3576001600160a01b03967f0000000000000000000000000000000000000000000000000000000000000000881694881680860361407957506040519560e08701948786106001600160401b03871117612d92578a988a8097938194604052168952828a8a019616865260408901918252606089019130835260808a0194855260a08a019586528360c08b01975f89526040519d8e9c8d6304e45aaf60e01b9052511660048d0152511660248b015251166044890152511660648701525160848601525160a4850152511660c4830152815a60e4925f91f191821561298f575f9261405b57505090565b90809250813d8311614072575b6130898183612e12565b503d614068565b94508795977f0000000000000000000000000000000000000000000000000000000000000000168095146140dd5760405162461bcd60e51b8152600481018a9052600e60248201526d24b73b30b634b2103937baba32b960911b6044820152606490fd5b61012c4201804211612a9157604051986101008a01958a87106001600160401b03881117612d92578b99898098938194604052168c52828b8d019716875260408c0191825260608c019130835260808d0194855260a08d01958652838d60c0810198895260e001985f8a526040519e8f9d8e9163414bf38960e01b835251169060040152511660248c0152511660448a0152511660648801525160848701525160a48601525160c4850152511660e4830152815a610104925f91f191821561298f575f9261405b57505090565b5f8051602061465483398151915260028154146141c75760029055565b604051633ee5aeb560e01b8152600490fd5b6001600160a01b03169081156138b0577fddf252ad1be2c89b69c2b068fc378daa952ba7f163c4a11628f55a4df523b3ef60205f925f805160206145f4833981519152614227828254613114565b90558484525f80516020614594833981519152825260408420818154019055604051908152a3565b91906001600160a01b0383169081156138c857815f525f805160206145948339815191528060205260405f2054948286106142d65750817fddf252ad1be2c89b69c2b068fc378daa952ba7f163c4a11628f55a4df523b3ef925f959660209386885284520360408620555f805160206145f4833981519152818154039055604051908152a3565b60405163391434e360e21b81526001600160a01b039190911660048201526024810186905260448101839052606490fd5b91614313818385614355565b91811561327c5761325c9309151590613114565b60ff5f805160206146748339815191525460401c161561434357565b604051631afcd79f60e31b8152600490fd5b90915f1983830992808302928380861095039480860395146143e157848311156143c95790829109815f038216809204600280826003021880830282030280830282030280830282030280830282030280830282030280920290030293600183805f03040190848311900302920304170290565b82634e487b715f52156003026011186020526024601cfd5b50509061325c9250613272565b3d15614418573d906143ff82612e33565b9161440d6040519384612e12565b82523d5f602084013e565b606090565b5f8091604051602081019063313ce56760e01b82526004815261443f81612ddc565b51916001600160a01b03165afa6144546143ee565b908061448a575b614467575b505f905f90565b6020818051810103126105f3576020015160ff8111614460579060ff6001921690565b5060208151101561445b565b905f602091828151910182855af11561298f575f513d6144e757506001600160a01b0381163b155b6144c55750565b604051635274afe760e01b81526001600160a01b039091166004820152602490fd5b600114156144be565b90614517575080511561450557602081519101fd5b60405163d6bda27560e01b8152600490fd5b8151158061454a575b614528575090565b604051639996b31560e01b81526001600160a01b039091166004820152602490fd5b50803b1561452056fe2ae08a8e29253f69ac5d979a101956ab8f8d9d7ded63fa7a83b16fc47648eab052c63247e1f47db19d5ce0460030c497f067ca4cebf71ba98eeadabe20bace0352c63247e1f47db19d5ce0460030c497f067ca4cebf71ba98eeadabe20bace0052c63247e1f47db19d5ce0460030c497f067ca4cebf71ba98eeadabe20bace049016d09d72d40fdae2fd8ceac6b6234c7706214fd39c1cd1e609a0528c19930052c63247e1f47db19d5ce0460030c497f067ca4cebf71ba98eeadabe20bace020773e532dfede91f04b12a73d3d2acd361424f41f76b4fb79f090161e36b4e0046a2803e59a4de4e7a4c574b1243f25977ac4c77d5a1a4a609b5394cebb4a2aa9b779b17422d0df92223018b32b4d1fa46e071723d6817e2486d003becc55f00f0c57e16840df040f15088dc2f81fe391c3923bec73e23a9662efc9c229c6a00a2646970667358221220bcc6abf5c1139b0b1515cf3e90fa6c75ff166d029dd8ac3a61275771e117d9cf64736f6c63430008180033","linkReferences":{}},"methodIdentifiers":{"UPGRADE_INTERFACE_VERSION()":"ad3cb1cc","USDC()":"89a30271","USDT()":"c54e44eb","allowance(address,address)":"dd62ed3e","approve(address,uint256)":"095ea7b3","asset()":"38d52e0f","balanceOf(address)":"70a08231","canRebalance()":"a06880c0","claimFees()":"d294f093","convertToAssets(uint256)":"07a2d13a","convertToShares(uint256)":"c6e6f592","currentAllocation()":"345210dd","decimals()":"313ce567","deposit(uint256,address)":"6e553f65","emergencyPause()":"51858e27","getBestSwapRoute(address,address,uint256)":"f3a66b12","iguanaQuoter()":"42d9a69c","iguanaRouter()":"98462246","initialize()":"8129fc1c","maxDeposit(address)":"402d267d","maxMint(address)":"c63d75b6","maxRedeem(address)":"d905777e","maxWithdraw(address)":"ce96cb77","mint(uint256,address)":"94bf804d","name()":"06fdde03","owner()":"8da5cb5b","paused()":"5c975abb","previewDeposit(uint256)":"ef8b30f7","previewMint(uint256)":"b3d7f6b9","previewRedeem(uint256)":"4cdad506","previewWithdraw(uint256)":"0a28a477","proxiableUUID()":"52d1902d","rebalance()":"7d7c2a1c","redeem(uint256,address,address)":"ba087652","renounceOwnership()":"715018a6","setTvlCap(uint256)":"dd0290e2","superlendPool()":"c0b10b79","symbol()":"95d89b41","totalAssets()":"01e1d114","totalPrincipal()":"4b1533b2","totalSupply()":"18160ddd","transfer(address,uint256)":"a9059cbb","transferFrom(address,address,uint256)":"23b872dd","transferOwnership(address)":"f2fde38b","tvlCap()":"3f23fa1a","uniswapQuoter()":"4db4a352","uniswapRouter()":"735de9f7","unpause()":"3f4ba83a","upgradeToAndCall(address,bytes)":"4f1ef286","userDepositTime(address)":"cf27e06f","userPrincipal(address)":"62dab626","withdraw(uint256,address,address)":"b460af94"},"id":54}