{"abi":[{"type":"constructor","inputs":[{"name":"_usdc","type":"address","internalType":"address"},{"name":"_usdt","type":"address","internalType":"address"},{"name":"_superlendPool","type":"address","internalType":"address"},{"name":"_uniswapRouter","type":"address","internalType":"address"},{"name":"_uniswapQuoter","type":"address","internalType":"address"},{"name":"_iguanaRouter","type":"address","internalType":"address"},{"name":"_iguanaQuoter","type":"address","internalType":"address"}],"stateMutability":"nonpayable"},{"type":"function","name":"UPGRADE_INTERFACE_VERSION","inputs":[],"outputs":[{"name":"","type":"string","internalType":"string"}],"stateMutability":"view"},{"type":"function","name":"USDC","inputs":[],"outputs":[{"name":"","type":"address","internalType":"address"}],"stateMutability":"view"},{"type":"function","name":"USDT","inputs":[],"outputs":[{"name":"","type":"address","internalType":"address"}],"stateMutability":"view"},{"type":"function","name":"allowance","inputs":[{"name":"owner","type":"address","internalType":"address"},{"name":"spender","type":"address","internalType":"address"}],"outputs":[{"name":"","type":"uint256","internalType":"uint256"}],"stateMutability":"view"},{"type":"function","name":"approve","inputs":[{"name":"spender","type":"address","internalType":"address"},{"name":"value","type":"uint256","internalType":"uint256"}],"outputs":[{"name":"","type":"bool","internalType":"bool"}],"stateMutability":"nonpayable"},{"type":"function","name":"asset","inputs":[],"outputs":[{"name":"","type":"address","internalType":"address"}],"stateMutability":"view"},{"type":"function","name":"balanceOf","inputs":[{"name":"account","type":"address","internalType":"address"}],"outputs":[{"name":"","type":"uint256","internalType":"uint256"}],"stateMutability":"view"},{"type":"function","name":"canRebalance","inputs":[],"outputs":[{"name":"canRebal","type":"bool","internalType":"bool"},{"name":"reason","type":"string","internalType":"string"},{"name":"betterAsset","type":"address","internalType":"address"},{"name":"currentAPY","type":"uint256","internalType":"uint256"},{"name":"betterAPY","type":"uint256","internalType":"uint256"}],"stateMutability":"view"},{"type":"function","name":"checkRebalancingProfitability","inputs":[],"outputs":[{"name":"isProfitable","type":"bool","internalType":"bool"},{"name":"reason","type":"string","internalType":"string"},{"name":"expectedSlippage","type":"uint256","internalType":"uint256"},{"name":"maxAllowedSlippage","type":"uint256","internalType":"uint256"}],"stateMutability":"view"},{"type":"function","name":"claimAllPerformanceFees","inputs":[],"outputs":[],"stateMutability":"nonpayable"},{"type":"function","name":"claimPerformanceFees","inputs":[],"outputs":[],"stateMutability":"nonpayable"},{"type":"function","name":"convertToAssets","inputs":[{"name":"shares","type":"uint256","internalType":"uint256"}],"outputs":[{"name":"","type":"uint256","internalType":"uint256"}],"stateMutability":"view"},{"type":"function","name":"convertToShares","inputs":[{"name":"assets","type":"uint256","internalType":"uint256"}],"outputs":[{"name":"","type":"uint256","internalType":"uint256"}],"stateMutability":"view"},{"type":"function","name":"currentAllocation","inputs":[],"outputs":[{"name":"","type":"address","internalType":"address"}],"stateMutability":"view"},{"type":"function","name":"decimals","inputs":[],"outputs":[{"name":"","type":"uint8","internalType":"uint8"}],"stateMutability":"pure"},{"type":"function","name":"deposit","inputs":[{"name":"assets","type":"uint256","internalType":"uint256"},{"name":"receiver","type":"address","internalType":"address"}],"outputs":[{"name":"","type":"uint256","internalType":"uint256"}],"stateMutability":"nonpayable"},{"type":"function","name":"emergencyPause","inputs":[],"outputs":[],"stateMutability":"nonpayable"},{"type":"function","name":"feeShares","inputs":[{"name":"","type":"address","internalType":"address"}],"outputs":[{"name":"","type":"uint256","internalType":"uint256"}],"stateMutability":"view"},{"type":"function","name":"getBestSwapRoute","inputs":[{"name":"tokenIn","type":"address","internalType":"address"},{"name":"tokenOut","type":"address","internalType":"address"},{"name":"amountIn","type":"uint256","internalType":"uint256"}],"outputs":[{"name":"","type":"tuple","internalType":"struct SuperlinkUSDVault.RouteInfo","components":[{"name":"router","type":"address","internalType":"address"},{"name":"expectedOut","type":"uint256","internalType":"uint256"},{"name":"routeData","type":"bytes","internalType":"bytes"},{"name":"fee","type":"uint24","internalType":"uint24"}]}],"stateMutability":"nonpayable"},{"type":"function","name":"getClaimableFees","inputs":[],"outputs":[{"name":"realizedFees","type":"uint256","internalType":"uint256"},{"name":"unrealizedFees","type":"uint256","internalType":"uint256"},{"name":"totalFees","type":"uint256","internalType":"uint256"}],"stateMutability":"view"},{"type":"function","name":"iguanaQuoter","inputs":[],"outputs":[{"name":"","type":"address","internalType":"contract IIguanaDEXQuoter"}],"stateMutability":"view"},{"type":"function","name":"iguanaRouter","inputs":[],"outputs":[{"name":"","type":"address","internalType":"contract IIguanaDEXRouter"}],"stateMutability":"view"},{"type":"function","name":"initialize","inputs":[],"outputs":[],"stateMutability":"nonpayable"},{"type":"function","name":"lastWithdrawalTime","inputs":[{"name":"user","type":"address","internalType":"address"}],"outputs":[{"name":"","type":"uint256","internalType":"uint256"}],"stateMutability":"view"},{"type":"function","name":"maxDeposit","inputs":[{"name":"","type":"address","internalType":"address"}],"outputs":[{"name":"","type":"uint256","internalType":"uint256"}],"stateMutability":"view"},{"type":"function","name":"maxMint","inputs":[{"name":"","type":"address","internalType":"address"}],"outputs":[{"name":"","type":"uint256","internalType":"uint256"}],"stateMutability":"view"},{"type":"function","name":"maxRedeem","inputs":[{"name":"owner","type":"address","internalType":"address"}],"outputs":[{"name":"","type":"uint256","internalType":"uint256"}],"stateMutability":"view"},{"type":"function","name":"maxWithdraw","inputs":[{"name":"owner","type":"address","internalType":"address"}],"outputs":[{"name":"","type":"uint256","internalType":"uint256"}],"stateMutability":"view"},{"type":"function","name":"mint","inputs":[{"name":"shares","type":"uint256","internalType":"uint256"},{"name":"receiver","type":"address","internalType":"address"}],"outputs":[{"name":"","type":"uint256","internalType":"uint256"}],"stateMutability":"nonpayable"},{"type":"function","name":"name","inputs":[],"outputs":[{"name":"","type":"string","internalType":"string"}],"stateMutability":"view"},{"type":"function","name":"owner","inputs":[],"outputs":[{"name":"","type":"address","internalType":"address"}],"stateMutability":"view"},{"type":"function","name":"pause","inputs":[],"outputs":[],"stateMutability":"nonpayable"},{"type":"function","name":"paused","inputs":[],"outputs":[{"name":"","type":"bool","internalType":"bool"}],"stateMutability":"view"},{"type":"function","name":"previewDeposit","inputs":[{"name":"assets","type":"uint256","internalType":"uint256"}],"outputs":[{"name":"","type":"uint256","internalType":"uint256"}],"stateMutability":"view"},{"type":"function","name":"previewMint","inputs":[{"name":"shares","type":"uint256","internalType":"uint256"}],"outputs":[{"name":"","type":"uint256","internalType":"uint256"}],"stateMutability":"view"},{"type":"function","name":"previewRedeem","inputs":[{"name":"shares","type":"uint256","internalType":"uint256"}],"outputs":[{"name":"","type":"uint256","internalType":"uint256"}],"stateMutability":"view"},{"type":"function","name":"previewWithdraw","inputs":[{"name":"assets","type":"uint256","internalType":"uint256"}],"outputs":[{"name":"","type":"uint256","internalType":"uint256"}],"stateMutability":"view"},{"type":"function","name":"proxiableUUID","inputs":[],"outputs":[{"name":"","type":"bytes32","internalType":"bytes32"}],"stateMutability":"view"},{"type":"function","name":"rebalance","inputs":[],"outputs":[],"stateMutability":"nonpayable"},{"type":"function","name":"redeem","inputs":[{"name":"shares","type":"uint256","internalType":"uint256"},{"name":"receiver","type":"address","internalType":"address"},{"name":"owner","type":"address","internalType":"address"}],"outputs":[{"name":"","type":"uint256","internalType":"uint256"}],"stateMutability":"nonpayable"},{"type":"function","name":"renounceOwnership","inputs":[],"outputs":[],"stateMutability":"nonpayable"},{"type":"function","name":"setTvlCap","inputs":[{"name":"newCap","type":"uint256","internalType":"uint256"}],"outputs":[],"stateMutability":"nonpayable"},{"type":"function","name":"superlendPool","inputs":[],"outputs":[{"name":"","type":"address","internalType":"contract ISuperlendPool"}],"stateMutability":"view"},{"type":"function","name":"symbol","inputs":[],"outputs":[{"name":"","type":"string","internalType":"string"}],"stateMutability":"view"},{"type":"function","name":"totalAssets","inputs":[],"outputs":[{"name":"","type":"uint256","internalType":"uint256"}],"stateMutability":"view"},{"type":"function","name":"totalPerformanceFeesEarned","inputs":[],"outputs":[{"name":"","type":"uint256","internalType":"uint256"}],"stateMutability":"view"},{"type":"function","name":"totalPrincipal","inputs":[],"outputs":[{"name":"","type":"uint256","internalType":"uint256"}],"stateMutability":"view"},{"type":"function","name":"totalSupply","inputs":[],"outputs":[{"name":"","type":"uint256","internalType":"uint256"}],"stateMutability":"view"},{"type":"function","name":"transfer","inputs":[{"name":"to","type":"address","internalType":"address"},{"name":"value","type":"uint256","internalType":"uint256"}],"outputs":[{"name":"","type":"bool","internalType":"bool"}],"stateMutability":"nonpayable"},{"type":"function","name":"transferFrom","inputs":[{"name":"from","type":"address","internalType":"address"},{"name":"to","type":"address","internalType":"address"},{"name":"value","type":"uint256","internalType":"uint256"}],"outputs":[{"name":"","type":"bool","internalType":"bool"}],"stateMutability":"nonpayable"},{"type":"function","name":"transferOwnership","inputs":[{"name":"newOwner","type":"address","internalType":"address"}],"outputs":[],"stateMutability":"nonpayable"},{"type":"function","name":"tvlCap","inputs":[],"outputs":[{"name":"","type":"uint256","internalType":"uint256"}],"stateMutability":"view"},{"type":"function","name":"uniswapQuoter","inputs":[],"outputs":[{"name":"","type":"address","internalType":"contract IQuoterV2"}],"stateMutability":"view"},{"type":"function","name":"uniswapRouter","inputs":[],"outputs":[{"name":"","type":"address","internalType":"contract ISwapRouter02"}],"stateMutability":"view"},{"type":"function","name":"unpause","inputs":[],"outputs":[],"stateMutability":"nonpayable"},{"type":"function","name":"upgradeToAndCall","inputs":[{"name":"newImplementation","type":"address","internalType":"address"},{"name":"data","type":"bytes","internalType":"bytes"}],"outputs":[],"stateMutability":"payable"},{"type":"function","name":"userDepositTime","inputs":[{"name":"","type":"address","internalType":"address"}],"outputs":[{"name":"","type":"uint256","internalType":"uint256"}],"stateMutability":"view"},{"type":"function","name":"userPrincipal","inputs":[{"name":"","type":"address","internalType":"address"}],"outputs":[{"name":"","type":"uint256","internalType":"uint256"}],"stateMutability":"view"},{"type":"function","name":"withdraw","inputs":[{"name":"assets","type":"uint256","internalType":"uint256"},{"name":"receiver","type":"address","internalType":"address"},{"name":"owner","type":"address","internalType":"address"}],"outputs":[{"name":"","type":"uint256","internalType":"uint256"}],"stateMutability":"nonpayable"},{"type":"event","name":"Approval","inputs":[{"name":"owner","type":"address","indexed":true,"internalType":"address"},{"name":"spender","type":"address","indexed":true,"internalType":"address"},{"name":"value","type":"uint256","indexed":false,"internalType":"uint256"}],"anonymous":false},{"type":"event","name":"Deposit","inputs":[{"name":"sender","type":"address","indexed":true,"internalType":"address"},{"name":"owner","type":"address","indexed":true,"internalType":"address"},{"name":"assets","type":"uint256","indexed":false,"internalType":"uint256"},{"name":"shares","type":"uint256","indexed":false,"internalType":"uint256"}],"anonymous":false},{"type":"event","name":"EmergencyPaused","inputs":[],"anonymous":false},{"type":"event","name":"FeesClaimed","inputs":[{"name":"amount","type":"uint256","indexed":false,"internalType":"uint256"}],"anonymous":false},{"type":"event","name":"Initialized","inputs":[{"name":"version","type":"uint64","indexed":false,"internalType":"uint64"}],"anonymous":false},{"type":"event","name":"OwnershipTransferred","inputs":[{"name":"previousOwner","type":"address","indexed":true,"internalType":"address"},{"name":"newOwner","type":"address","indexed":true,"internalType":"address"}],"anonymous":false},{"type":"event","name":"Rebalanced","inputs":[{"name":"from","type":"address","indexed":true,"internalType":"address"},{"name":"to","type":"address","indexed":true,"internalType":"address"},{"name":"amount","type":"uint256","indexed":false,"internalType":"uint256"}],"anonymous":false},{"type":"event","name":"RouteSelected","inputs":[{"name":"router","type":"address","indexed":true,"internalType":"address"},{"name":"fee","type":"uint24","indexed":false,"internalType":"uint24"},{"name":"amountIn","type":"uint256","indexed":false,"internalType":"uint256"},{"name":"amountOut","type":"uint256","indexed":false,"internalType":"uint256"}],"anonymous":false},{"type":"event","name":"Transfer","inputs":[{"name":"from","type":"address","indexed":true,"internalType":"address"},{"name":"to","type":"address","indexed":true,"internalType":"address"},{"name":"value","type":"uint256","indexed":false,"internalType":"uint256"}],"anonymous":false},{"type":"event","name":"TvlCapUpdated","inputs":[{"name":"newCap","type":"uint256","indexed":false,"internalType":"uint256"}],"anonymous":false},{"type":"event","name":"Unpaused","inputs":[],"anonymous":false},{"type":"event","name":"Upgraded","inputs":[{"name":"implementation","type":"address","indexed":true,"internalType":"address"}],"anonymous":false},{"type":"event","name":"Withdraw","inputs":[{"name":"sender","type":"address","indexed":true,"internalType":"address"},{"name":"receiver","type":"address","indexed":true,"internalType":"address"},{"name":"owner","type":"address","indexed":true,"internalType":"address"},{"name":"assets","type":"uint256","indexed":false,"internalType":"uint256"},{"name":"shares","type":"uint256","indexed":false,"internalType":"uint256"}],"anonymous":false},{"type":"error","name":"AddressEmptyCode","inputs":[{"name":"target","type":"address","internalType":"address"}]},{"type":"error","name":"ContractNotPaused","inputs":[]},{"type":"error","name":"ContractPaused","inputs":[]},{"type":"error","name":"ERC1967InvalidImplementation","inputs":[{"name":"implementation","type":"address","internalType":"address"}]},{"type":"error","name":"ERC1967NonPayable","inputs":[]},{"type":"error","name":"ERC20InsufficientAllowance","inputs":[{"name":"spender","type":"address","internalType":"address"},{"name":"allowance","type":"uint256","internalType":"uint256"},{"name":"needed","type":"uint256","internalType":"uint256"}]},{"type":"error","name":"ERC20InsufficientBalance","inputs":[{"name":"sender","type":"address","internalType":"address"},{"name":"balance","type":"uint256","internalType":"uint256"},{"name":"needed","type":"uint256","internalType":"uint256"}]},{"type":"error","name":"ERC20InvalidApprover","inputs":[{"name":"approver","type":"address","internalType":"address"}]},{"type":"error","name":"ERC20InvalidReceiver","inputs":[{"name":"receiver","type":"address","internalType":"address"}]},{"type":"error","name":"ERC20InvalidSender","inputs":[{"name":"sender","type":"address","internalType":"address"}]},{"type":"error","name":"ERC20InvalidSpender","inputs":[{"name":"spender","type":"address","internalType":"address"}]},{"type":"error","name":"ERC4626ExceededMaxDeposit","inputs":[{"name":"receiver","type":"address","internalType":"address"},{"name":"assets","type":"uint256","internalType":"uint256"},{"name":"max","type":"uint256","internalType":"uint256"}]},{"type":"error","name":"ERC4626ExceededMaxMint","inputs":[{"name":"receiver","type":"address","internalType":"address"},{"name":"shares","type":"uint256","internalType":"uint256"},{"name":"max","type":"uint256","internalType":"uint256"}]},{"type":"error","name":"ERC4626ExceededMaxRedeem","inputs":[{"name":"owner","type":"address","internalType":"address"},{"name":"shares","type":"uint256","internalType":"uint256"},{"name":"max","type":"uint256","internalType":"uint256"}]},{"type":"error","name":"ERC4626ExceededMaxWithdraw","inputs":[{"name":"owner","type":"address","internalType":"address"},{"name":"assets","type":"uint256","internalType":"uint256"},{"name":"max","type":"uint256","internalType":"uint256"}]},{"type":"error","name":"FailedCall","inputs":[]},{"type":"error","name":"InsufficientDeposit","inputs":[]},{"type":"error","name":"InsufficientSlippage","inputs":[]},{"type":"error","name":"InvalidInitialization","inputs":[]},{"type":"error","name":"NoFeesToClaim","inputs":[]},{"type":"error","name":"NotInitializing","inputs":[]},{"type":"error","name":"OwnableInvalidOwner","inputs":[{"name":"owner","type":"address","internalType":"address"}]},{"type":"error","name":"OwnableUnauthorizedAccount","inputs":[{"name":"account","type":"address","internalType":"address"}]},{"type":"error","name":"RebalanceNotProfitable","inputs":[]},{"type":"error","name":"ReentrancyGuardReentrantCall","inputs":[]},{"type":"error","name":"SafeERC20FailedOperation","inputs":[{"name":"token","type":"address","internalType":"address"}]},{"type":"error","name":"SlippageExceedsLimit","inputs":[]},{"type":"error","name":"TvlCapExceeded","inputs":[]},{"type":"error","name":"UUPSUnauthorizedCallContext","inputs":[]},{"type":"error","name":"UUPSUnsupportedProxiableUUID","inputs":[{"name":"slot","type":"bytes32","internalType":"bytes32"}]},{"type":"error","name":"WithdrawalLocked","inputs":[]}],"bytecode":{"object":"0x6101803462000324576001600160401b0390601f6200517638819003918201601f191683019291908484118385101762000328578160e09284926040968752833981010312620003245762000054816200033c565b9062000063602082016200033c565b92620000718183016200033c565b9462000080606084016200033c565b956200008f608085016200033c565b95620000ac60c0620000a460a088016200033c565b96016200033c565b953060805260a05260c05260018060a01b0380911660e052806101009716875280610120961686528061014094168452610160941684527ff0c57e16840df040f15088dc2f81fe391c3923bec73e23a9662efc9c229c6a009081549060ff82851c1662000313578080831603620002ce575b5050505192614e249485620003528639608051858181612613015261290e015260a0518581816107fc0152818161087701528181610a7101528181610e3801528181610ec60152818161107d0152818161141801528181611540015281816115a00152818161175a015281816118980152818161197301528181611f5a01528181612280015281816127ae015281816127f501528181612bd801528181613301015281816136150152818161369d0152613947015260c0518581816104d901528181610a330152818161103f0152818161180c015281816118eb015281816119f601528181611f87015281816122c4015281816127240152818161359c0152613972015260e05185818161051e015281816109ef015281816110000152818161179e01528181611e4c0152818161232c015281816126ea01528181612c4a0152818161355d015281816139960152613d5d0152518481816118590152818161212a015281816142c60152614650015251838181612afa01526142260152518281816111ff01528181611938015281816119b8015281816144a10152614793015251818181612b6201526144010152f35b6001600160401b0319909116811790915581519081527fc7f505b2f371ae2175ee4913f4499e1f2633a7b5936321eed1cdaeb6115181d290602090a15f80806200011e565b835163f92ee8a960e01b8152600490fd5b5f80fd5b634e487b7160e01b5f52604160045260245ffd5b51906001600160a01b0382168203620003245756fe60806040526004361015610011575f80fd5b5f803560e01c806301e1d1141461307857806306fdde0314612fb257806307a2d13a14612b29578063095ea7b314612f035780630a28a47714612ee557806318160ddd14612ebc57806323b872dd14612e9a578063274f0e2414612df65780632bf9decf14612dbb578063313ce56714612da0578063345210dd14612d7857806338d52e0f14612d445780633f23fa1a14612d275780633f4ba83a14612b91578063402d267d146104be57806342d9a69c14612b4c5780634b1533b214612b2e5780634cdad50614612b295780634db4a35214612ae45780634de5120e146104405780634e7367a414612ac65780634f1ef2861461289357806351858e271461267d57806352d1902d1461260057806354859ef5146125b95780635c975abb1461259357806362dab6261461255a5780636e553f65146121c257806370a0823114610414578063715018a614612159578063735de9f7146121145780637d7c2a1c14611dd95780638129fc1c146114b75780638456cb591461144757806389a30271146114025780638da5cb5b146113cd57806394bf804d1461130d57806395d89b411461122e57806398462246146111e9578063a06880c014611190578063a9059cbb1461115e578063ad3cb1cc14611114578063afd458bc14610dde578063b3d7f6b914610dbf578063b460af941461066b578063ba0876521461054d578063c0b10b7914610508578063c54e44eb146104c3578063c63d75b6146104be578063c6e6f59214610340578063ce96cb7714610478578063cf27e06f14610440578063d905777e14610414578063dd0290e2146103c6578063dd62ed3e1461037e578063ee3e7b1014610345578063ef8b30f714610340578063f2fde38b146103135763f3a66b12146102a3575f80fd5b34610310576102c36102b43661311a565b916102bd613d0d565b50614145565b60405180916020825260018060a01b0381511660208301526020810151604083015262ffffff6060610303604084015160808387015260a0860190613092565b9201511660808301520390f35b80fd5b50346103105760203660031901126103105761033d6103306130ee565b610338614077565b613c9c565b80f35b6132b0565b5034610310576020366003190112610310576020906040906001600160a01b0361036d6130ee565b168152600683522054604051908152f35b5034610310576040366003190112610310576103986130ee565b6103a96103a3613104565b91613243565b9060018060a01b03165f52602052602060405f2054604051908152f35b5034610310576020366003190112610310577f2923cecec41b7140eaf657a035af4abb23ed61d16b1fc20a986838eb3ad99bd06020600435610406614077565b80600455604051908152a180f35b50346103105760203660031901126103105760206104386104336130ee565b613808565b604051908152f35b5034610310576020366003190112610310576020906040906001600160a01b036104686130ee565b1681528083522054604051908152f35b503461031057602036600319011261031057602090610438906040906001600160a01b036104a46130ee565b1681525f80516020614ccf83398151915284522054613e7f565b61314f565b50346103105780600319360112610310576040517f00000000000000000000000000000000000000000000000000000000000000006001600160a01b03168152602090f35b50346103105780600319360112610310576040517f00000000000000000000000000000000000000000000000000000000000000006001600160a01b03168152602090f35b50346103105761055c3661327b565b61056581613808565b808411610637575082610579602094613e7f565b9260018060a01b039061059683838616958633036106275761498a565b5f80516020614d6f8339815191525460405163a9059cbb60e01b888201526001600160a01b0383166024820152604481018790526105ec9184166105e782606481015b03601f198101845283613207565b614bd1565b604051928584528684015216907ffbde797d201c681b91056529119e0b02407c7bb96a4a2c75c01fc9667232c8db60403392a4604051908152f35b610632823383613ef6565b61498a565b604051632e52afbb60e21b81526001600160a01b039290921660048301526024820193909352604481019290925250606490fd5b50346103105761067a3661327b565b91926106846140af565b8315610d7a576001600160a01b0393828516916106a28315156137c9565b858516938415610d45578482526020968288526040832054620151808101809111610d3157421080610d21575b610d0f578583525f80516020614ccf8339815191529182895260408420549283159384610cd2576106ff81613e7f565b9461070988613ea6565b9a828c11610c97579061071e8c8e949361498a565b88968b8952600684528b8360408b2054958682115f14610c915761074287836133a3565b80151580610c7d575b610be9575b5050505050155f14610bd8578a8103610bba5789875260018c5260408720545b8a885260018d526040882054808211610bb2575b505b8a885260018d526040882061079c8282546133a3565b90556002548111610ba8576107b3906002546133a3565b6002555b81610b69575b50508785528952604084205415610b50575b60035460ff8160a01c165f146109ab57506040516370a0823160e01b815230600482015283908a816024817f000000000000000000000000000000000000000000000000000000000000000088165afa9081156109a057869161096f575b501061092a5791889161087394935b60405163a9059cbb60e01b81526001600160a01b039091166004820152602481019290925290938491908290859082906044820190565b03927f0000000000000000000000000000000000000000000000000000000000000000165af190811561091e57506108f1575b5060405190815283858201527ffbde797d201c681b91056529119e0b02407c7bb96a4a2c75c01fc9667232c8db60403392a460015f80516020614daf83398151915255604051908152f35b61091090863d8811610917575b6109088183613207565b8101906133ee565b505f6108a6565b503d6108fe565b604051903d90823e3d90fd5b60405162461bcd60e51b8152600481018a9052601960248201527f496e73756666696369656e7420555344432062616c616e6365000000000000006044820152606490fd5b90508a81813d8311610999575b6109868183613207565b8101031261099557515f61082d565b5f80fd5b503d61097c565b6040513d88823e3d90fd5b90919392806109b8613d31565b10610aff57604051631a4ca37b60e21b81529185166001600160a01b031660048301526024820152306044820152908882606481867f000000000000000000000000000000000000000000000000000000000000000089165af1918215610af457908992918492610ac1575b509361087394828260035416907f0000000000000000000000000000000000000000000000000000000000000000918483161480610ab8575b610a69575b505061083c565b610ab09294507f0000000000000000000000000000000000000000000000000000000000000000610a9b828285614145565b918583511691886040850151940151946145fd565b915f80610a62565b50801515610a5d565b8381949293503d8311610aed575b610ad98183613207565b810103126109955790518891610873610a24565b503d610acf565b6040513d85823e3d90fd5b60405162461bcd60e51b8152600481018b90526024808201527f496e73756666696369656e742062616c616e636520696e206c656e64696e67206044820152631c1bdbdb60e21b6064820152608490fd5b60018952836040812055600689528360408120556107cf565b610b7c90610b778c846133b0565b6133c3565b80821115610ba057610b8d916133a3565b88865260068b5260408620555f806107bd565b505084610b8d565b50866002556107b7565b90505f610784565b89875260018c52610bd381610b778d60408b20546133b0565b610770565b89875260018c526040872054610786565b600192610b77610bf992876133b0565b928c525260408a205490818111610c15575b50838f8e92610750565b610c21929399506133a3565b6105dc90818102918183041490151715610c695790610b778a612710610c4794046133b0565b95610c5e610c55888b6133a3565b976005546133e1565b6005555f8080610c0b565b634e487b7160e01b89526011600452602489fd5b50838d526001825260408d2054851161074b565b8b610742565b60405162461bcd60e51b8152600481018e90526013602482015272496e73756666696369656e742073686172657360681b6044820152606490fd5b60405162461bcd60e51b8152600481018c905260156024820152744e6f2073686172657320746f20776974686472617760581b6044820152606490fd5b604051630c8445b760e21b8152600490fd5b5060ff60035460a01c16156106cf565b634e487b7160e01b84526011600452602484fd5b60405162461bcd60e51b815260206004820152600d60248201526c24b73b30b634b21037bbb732b960991b6044820152606490fd5b60405162461bcd60e51b815260206004820152601b60248201527f43616e6e6f74207769746864726177207a65726f2061737365747300000000006044820152606490fd5b5034610310576020366003190112610310576020610438600435613e54565b5034610310578060031936011261031057610df7614077565b610dff6140af565b6005548015611102578160055560035460ff8160a01c165f14610fcc57506040516370a0823160e01b81523060048201526020816024817f00000000000000000000000000000000000000000000000000000000000000006001600160a01b03165afa8015610af45782918491610f97575b5010610f5257610ec2905b5f80516020614d0f8339815191525460405163a9059cbb60e01b81526001600160a01b039182166004820152602481018390529260209184918290879082906044820190565b03927f0000000000000000000000000000000000000000000000000000000000000000165af1908115610af4577f83db9dc084973306ecd0b0f10cb495b81dd9ddcc135eb7934d2723bcabc8f4c392602092610f35575b50604051908152a160015f80516020614daf8339815191525580f35b610f4b90833d8511610917576109088183613207565b505f610f19565b60405162461bcd60e51b815260206004820152601a60248201527f496e73756666696369656e74205553444320666f7220666565730000000000006044820152606490fd5b9150506020813d602011610fc4575b81610fb360209383613207565b81010312610995578190515f610e71565b3d9150610fa6565b604051631a4ca37b60e21b81526001600160a01b0391821660048201526024810192909252306044830152602082606481867f000000000000000000000000000000000000000000000000000000000000000086165af18015610af45783906110ce575b610ec2925080918060035416917f00000000000000000000000000000000000000000000000000000000000000009282841614806110c5575b611076575b505050610e7c565b6110bd93507f0000000000000000000000000000000000000000000000000000000000000000906110a8818386614145565b928351169160206040850151940151946145fd565b5f808061106e565b50801515611069565b506020823d6020116110fa575b816110e860209383613207565b8101031261099557610ec29151611030565b3d91506110db565b60405163211b631760e21b8152600490fd5b503461031057806003193601126103105761115a604051611134816131d1565b60058152640352e302e360dc1b6020820152604051918291602083526020830190613092565b0390f35b50346103105760403660031901126103105761118561117b6130ee565b6024359033613f8e565b602060405160018152f35b50346103105780600319360112610310576111a961392b565b906111cb6040959495519586951515865260a0602087015260a0860190613092565b6001600160a01b039093166040850152606084015260808301520390f35b50346103105780600319360112610310576040517f00000000000000000000000000000000000000000000000000000000000000006001600160a01b03168152602090f35b50346103105780600319360112610310576040519080825f80516020614cef83398151915292835461125f8161336b565b93848452602095600192876001821691825f146112e95750506001146112a3575b50505061128f92500383613207565b61115a604051928284938452830190613092565b8152859250905f80516020614d8f8339815191525b8583106112d157505061128f93508201015f8080611280565b805483890185015287945086939092019181016112b8565b93509450505061128f94915060ff191682840152151560051b8201015f8080611280565b503461031057604036600319011261031057602060043561132c613104565b9061133681613e54565b5f80516020614d6f833981519152546040516323b872dd60e01b868201523360248201523060448201526064810183905291936001600160a01b03929091611388919084166105e782608481016105d9565b6113928382614914565b604051928484528584015216907fdcbc1c05240f31ff3ad067ef1ee35ce4997762752e3a095284754544f4c709d760403392a3604051908152f35b50346103105780600319360112610310575f80516020614d0f833981519152546040516001600160a01b039091168152602090f35b50346103105780600319360112610310576040517f00000000000000000000000000000000000000000000000000000000000000006001600160a01b03168152602090f35b5034610310578060031936011261031057611460614077565b60035460ff8160a01c166114815760ff60a01b1916600160a01b1760035580f35b60405162461bcd60e51b815260206004820152600e60248201526d105b1c9958591e481c185d5cd95960921b6044820152606490fd5b50346103105780600319360112610310575f80516020614dcf833981519152546001600160401b03811680159081611dc9575b6001149081611dbf575b159081611db6575b50611da45760016001600160401b03198216175f80516020614dcf8339815191525560ff8160401c1615611d78575b611533614a62565b61153b614a62565b61156d7f00000000000000000000000000000000000000000000000000000000000000006001600160a01b0316614b58565b9015611d70575b5f80516020614d6f83398151915280546001600160a81b03191660a09290921b60ff60a01b16919091177f00000000000000000000000000000000000000000000000000000000000000006001600160a01b0316179055604051916115d8836131d1565b601383527214dd5c195c9b1a5b9ac81554d10815985d5b1d606a1b602084015260405191611605836131d1565b60068352651cdd5c1554d160d21b6020840152611620614a62565b611628614a62565b83516001600160401b038111611c585761164f5f80516020614caf8339815191525461336b565b601f8111611d00575b506020601f8211600114611c775783949582939492611c6c575b50508160011b915f199060031b1c1916175f80516020614caf833981519152555b82516001600160401b038111611c58576116ba5f80516020614cef8339815191525461336b565b601f8111611be4575b506020601f8211600114611b5c57839482939492611b51575b50508160011b915f199060031b1c1916175f80516020614cef833981519152555b611705614a62565b61170d614a62565b61171633613c9c565b61171e614a62565b611726614a62565b61172e614a62565b60015f80516020614daf833981519152556402540be4006004908155600380546001600160a81b0319167f00000000000000000000000000000000000000000000000000000000000000006001600160a01b03908116918217909255600585905560405163095ea7b360e01b81527f00000000000000000000000000000000000000000000000000000000000000009092169282018390525f1960248301526020908290604490829088905af18015611b0857611b32575b5060405163095ea7b360e01b815260048101919091525f196024820152602081604481867f00000000000000000000000000000000000000000000000000000000000000006001600160a01b03165af18015610af457611b13575b5060405163095ea7b360e01b81526001600160a01b037f00000000000000000000000000000000000000000000000000000000000000008116600483018190525f19602484015291906020908290604490829088907f0000000000000000000000000000000000000000000000000000000000000000165af18015611b0857611ae9575b5060405163095ea7b360e01b815260048101919091525f196024820152602081604481867f00000000000000000000000000000000000000000000000000000000000000006001600160a01b03165af18015610af457611aca575b5060405163095ea7b360e01b81526001600160a01b037f0000000000000000000000000000000000000000000000000000000000000000811660048301525f1960248301526020908290604490829087907f0000000000000000000000000000000000000000000000000000000000000000165af18015610af457611aab575b5060405163095ea7b360e01b81526001600160a01b037f0000000000000000000000000000000000000000000000000000000000000000811660048301525f1960248301529091906020908390604490829087907f0000000000000000000000000000000000000000000000000000000000000000165af1918215610af45760ff92611a8c575b5060401c1615611a345780f35b68ff0000000000000000195f80516020614dcf83398151915254165f80516020614dcf833981519152557fc7f505b2f371ae2175ee4913f4499e1f2633a7b5936321eed1cdaeb6115181d2602060405160018152a180f35b611aa49060203d602011610917576109088183613207565b505f611a27565b611ac39060203d602011610917576109088183613207565b505f6119a0565b611ae29060203d602011610917576109088183613207565b505f611920565b611b019060203d602011610917576109088183613207565b505f6118c5565b6040513d86823e3d90fd5b611b2b9060203d602011610917576109088183613207565b505f611841565b611b4a9060203d602011610917576109088183613207565b505f6117e6565b015190505f806116dc565b5f80516020614cef83398151915284525f80516020614d8f83398151915290845b601f1984168110611bcc5750600193949583601f19811610611bb4575b505050811b015f80516020614cef833981519152556116fd565b01515f1960f88460031b161c191690555f8080611b9a565b9091602060018192858a015181550193019101611b7d565b5f80516020614cef8339815191528452601f820160051c5f80516020614d8f833981519152019060208310611c43575b601f0160051c5f80516020614d8f83398151915201905b818110611c3857506116c3565b848155600101611c2b565b5f80516020614d8f8339815191529150611c14565b634e487b7160e01b83526041600452602483fd5b015190505f80611672565b5f80516020614caf83398151915284525f80516020614c8f83398151915290845b601f1984168110611ce8575060019394959683601f19811610611cd0575b505050811b015f80516020614caf83398151915255611693565b01515f1960f88460031b161c191690555f8080611cb6565b9091602060018192858b015181550193019101611c98565b5f80516020614caf8339815191528452601f820160051c5f80516020614c8f8339815191520160208310611d5c575b601f820160051c5f80516020614c8f833981519152018110611d515750611658565b848155600101611d2f565b505f80516020614c8f833981519152611d2f565b506012611574565b68ffffffffffffffffff19811668010000000000000001175f80516020614dcf8339815191525561152b565b60405163f92ee8a960e01b8152600490fd5b9050155f6114fc565b303b1591506114f4565b604083901c60ff161591506114ea565b5034610310578060031936011261031057611df2614077565b611dfa6140af565b600380549060ff8260a01c1661210257611e1261392b565b5050929190501561206957604051631a4ca37b60e21b81526001600160a01b0393841660048201525f1960248201523060448201526020907f000000000000000000000000000000000000000000000000000000000000000085169082816064818a865af19081156120f75783916120ce575b50508585845416604051956370a0823160e01b87523060048801528487602481855afa968715610af457839761209b575b508688821692808403611ff5575b505085546001600160a01b03198116831787559050833b15611ff15760405163617ba03760e01b8152908316919091176001600160a01b03166004820152602481018690523060448201525f60648201529181908390608490829084905af1918215611fe4578692611fc9575b50507f4ce94e8bd94f62017197ba464f629a366572732970f6fe47c76f97bb53f76303925416937f000000000000000000000000000000000000000000000000000000000000000081811686145f14611fc457507f00000000000000000000000000000000000000000000000000000000000000005b6040519485521692a360015f80516020614daf8339815191525580f35b611fa7565b611fd4919250613174565b611fe05783855f611f31565b8480fd5b50604051903d90823e3d90fd5b8280fd5b819398508294509161200692614145565b9184830180518084115f146120925761201f90846133a3565b6127109081810291818304149015171561207e5761203f846005926133c3565b11612069578993612060938a8954169360408c8451169301519351946145fd565b945f8080611ec4565b6040516001622abbb960e11b03198152600490fd5b634e487b7160e01b8b52601160045260248bfd5b5060058a61203f565b85809298508194503d83116120c7575b6120b58183613207565b8101031261099557879151955f611eb6565b503d6120ab565b813d83116120f0575b6120e18183613207565b8101031261099557815f611e85565b503d6120d7565b6040513d89823e3d90fd5b60405163ab35696f60e01b8152600490fd5b50346103105780600319360112610310576040517f00000000000000000000000000000000000000000000000000000000000000006001600160a01b03168152602090f35b5034610310578060031936011261031057612172614077565b5f80516020614d0f83398151915280546001600160a01b031981169091555f906001600160a01b03167f8be0079c531659141344cd1fd0a4f28419497f9722a3daafe3b4186f6b6457e08280a380f35b5034610310576040366003190112610310576004356121df613104565b916121e86140af565b60ff60035460a01c166125205781156124db576001600160a01b0391838316916122138315156137c9565b620f424082106124c95761222e826122296132ce565b6133e1565b600454106124b7576001600160a01b0385165f9081525f80516020614ccf83398151915260205260409020546040516323b872dd60e01b815233600482015230602482015260448101849052602096907f000000000000000000000000000000000000000000000000000000000000000090888180606481010381888c87165af180156124ac5761248f575b50849087600354167f00000000000000000000000000000000000000000000000000000000000000009089821614612462575b50506122f885613ece565b9686855284895242604086205560018952604085206123188782546133e1565b9055612326866002546133e1565b600255807f000000000000000000000000000000000000000000000000000000000000000016906003541691813b1561245e5760405163617ba03760e01b81526001600160a01b0393909316600484015260248301523060448301525f606483015284908290608490829084905af18015611b085787918591612447575b50506123dc826123b7836123e395614914565b6001600160a01b03165f9081525f80516020614ccf8339815191526020526040902090565b54926133e1565b11612433575060405190815282848201527fdcbc1c05240f31ff3ad067ef1ee35ce4997762752e3a095284754544f4c709d760403392a360015f80516020614daf83398151915255604051908152f35b634e487b7160e01b81526001600452602490fd5b612452919250613174565b611ff15785835f6123a4565b8580fd5b6124889250612472878284614145565b90878a835116918c6040850151940151946145fd565b5f806122ed565b6124a590893d8b11610917576109088183613207565b505f6122ba565b6040513d87823e3d90fd5b60405163161ca4c760e31b8152600490fd5b60405163070f6eed60e11b8152600490fd5b60405162461bcd60e51b815260206004820152601a60248201527f43616e6e6f74206465706f736974207a65726f206173736574730000000000006044820152606490fd5b60405162461bcd60e51b815260206004820152601260248201527110dbdb9d1c9858dd081a5cc81c185d5cd95960721b6044820152606490fd5b5034610310576020366003190112610310576020906040906001600160a01b036125826130ee565b168152600183522054604051908152f35b5034610310578060031936011261031057602060ff60035460a01c166040519015158152f35b50346103105780600319360112610310576125d261376d565b604051931515845260806020850181905284936125f191850190613092565b91604084015260608301520390f35b50346103105780600319360112610310577f00000000000000000000000000000000000000000000000000000000000000006001600160a01b0316300361266b5760206040517f360894a13ba1a3210667c828492db98dca3e2076cc3735a920a3ca505d382bbc8152f35b60405163703e46dd60e11b8152600490fd5b5034610310578060031936011261031057612696614077565b60035460ff8160a01c166121025760ff60a01b198116600160a01b17600355604051631a4ca37b60e21b81526001600160a01b0391821660048201525f1960248201523060448201526020908181606481877f000000000000000000000000000000000000000000000000000000000000000088165af1908115611b0857829161286a575b505081600354167f000000000000000000000000000000000000000000000000000000000000000090838216809114612777575b847f4cb3183d0bf66f9634b15cfc3539fdddc96c2c9324848af89b56586a6739fec48180a180f35b82602491604051928380926370a0823160e01b82523060048301525afa9081156124ac57859161283d575b50806127ef575b5050507f0000000000000000000000000000000000000000000000000000000000000000166bffffffffffffffffffffffff60a01b60035416176003555f80808061274f565b612834927f000000000000000000000000000000000000000000000000000000000000000091612820818486614145565b9286845116926040850151940151946145fd565b505f80806127a9565b90508281813d8311612863575b6128548183613207565b8101031261099557515f6127a2565b503d61284a565b813d831161288c575b61287d8183613207565b8101031261099557805f61271b565b503d612873565b506040366003190112610310576128a86130ee565b60249182356001600160401b038111612ac25736602382011215612ac2578060040135926128d584613228565b6128e26040519182613207565b848152602094858201933688838301011161245e57818692898993018737830101526001600160a01b037f00000000000000000000000000000000000000000000000000000000000000008116308114908115612a94575b5061266b57612947614077565b6040516352d1902d60e01b81529083169580826004818a5afa9182918793612a64575b505061298857604051634c9c8ce360e01b8152600481018790528790fd5b8590877f360894a13ba1a3210667c828492db98dca3e2076cc3735a920a3ca505d382bbc91828103612a4f5750843b15612a39575080546001600160a01b031916821790556040518592917fbc7cd75a20ee27fd9adebab32041f755214dbc6bffa90cc0225b39da2e5c2d3b8480a2815115612a1c5750612a189382915190845af4612a12614b29565b91614c2b565b5080f35b935050505034612a2a575080f35b63b398979f60e01b8152600490fd5b604051634c9c8ce360e01b815260048101849052fd5b60405190632a87526960e21b82526004820152fd5b9080929350813d8311612a8d575b612a7c8183613207565b8101031261245e5751905f8061296a565b503d612a72565b9050817f360894a13ba1a3210667c828492db98dca3e2076cc3735a920a3ca505d382bbc541614155f61293a565b5080fd5b50346103105780600319360112610310576020600554604051908152f35b50346103105780600319360112610310576040517f00000000000000000000000000000000000000000000000000000000000000006001600160a01b03168152602090f35b6130d0565b50346103105780600319360112610310576020600254604051908152f35b50346103105780600319360112610310576040517f00000000000000000000000000000000000000000000000000000000000000006001600160a01b03168152602090f35b5034610995575f36600319011261099557612baa614077565b60035460ff8160a01c1615612d155760ff60a01b19166003556040516370a0823160e01b81523060048201527f0000000000000000000000000000000000000000000000000000000000000000906001600160a01b036020826024818487165afa918215612cd6575f92612ce1575b5081612c48575b837fa45f47fdea8a1efdd9029a5691c7f759c32b7c698632b563573e155625d169338180a180f35b7f00000000000000000000000000000000000000000000000000000000000000001691823b156109955760405163617ba03760e01b81526001600160a01b0391909116600482015260248101919091523060448201525f6064820181905290918290608490829084905af18015612cd657612cc5575b8080612c20565b612ccf9150613174565b5f80612cbe565b6040513d5f823e3d90fd5b9091506020813d602011612d0d575b81612cfd60209383613207565b810103126109955751905f612c19565b3d9150612cf0565b60405163dcdde9dd60e01b8152600490fd5b34610995575f366003190112610995576020600454604051908152f35b34610995575f366003190112610995575f80516020614d6f833981519152546040516001600160a01b039091168152602090f35b34610995575f366003190112610995576003546040516001600160a01b039091168152602090f35b34610995575f36600319011261099557602060405160068152f35b34610995575f36600319011261099557612dd3614077565b612ddb6140af565b612de3613406565b60015f80516020614daf83398151915255005b34610995575f36600319011261099557600554612e116132ce565b6002549081811115612e8f5790612e27916133a3565b906105dc91828102928184041490151715612e7b5761271060609204818082115f14612e7357612e56916133a3565b612e6081836133e1565b9060405192835260208301526040820152f35b50505f612e56565b634e487b7160e01b5f52601160045260245ffd5b50506060905f612e56565b3461099557611185612eab3661311a565b91612eb7833383613ef6565b613f8e565b34610995575f3660031901126109955760205f80516020614d2f83398151915254604051908152f35b34610995576020366003190112610995576020610438600435613ea6565b3461099557604036600319011261099557612f1c6130ee565b602435903315612f9a576001600160a01b0316908115612f8257612f3f33613243565b825f526020528060405f20556040519081527f8c5be1e5ebec7d5bd14f71427d1e84f3dd0314c0f7b2291e5b200ac8c7c3b92560203392a3602060405160018152f35b604051634a1406b160e11b81525f6004820152602490fd5b60405163e602df0560e01b81525f6004820152602490fd5b34610995575f366003190112610995576040515f80516020614caf8339815191528054825f612fe08361336b565b92838352602094600191866001821691825f1461305657505060011461300f575b505061128f92500383613207565b8592505f525f80516020614c8f833981519152905f915b85831061303e57505061128f93508201018580613001565b80548389018501528794508693909201918101613026565b925093505061128f94915060ff191682840152151560051b8201018580613001565b34610995575f3660031901126109955760206104386132ce565b91908251928382525f5b8481106130bc575050825f602080949584010152601f8019910116010190565b60208183018101518483018201520161309c565b34610995576020366003190112610995576020610438600435613e7f565b600435906001600160a01b038216820361099557565b602435906001600160a01b038216820361099557565b6060906003190112610995576001600160a01b0390600435828116810361099557916024359081168103610995579060443590565b34610995576020366003190112610995576131686130ee565b5060206040515f198152f35b6001600160401b03811161318757604052565b634e487b7160e01b5f52604160045260245ffd5b608081019081106001600160401b0382111761318757604052565b60a081019081106001600160401b0382111761318757604052565b604081019081106001600160401b0382111761318757604052565b606081019081106001600160401b0382111761318757604052565b90601f801991011681019081106001600160401b0382111761318757604052565b6001600160401b03811161318757601f01601f191660200190565b6001600160a01b03165f9081527f52c63247e1f47db19d5ce0460030c497f067ca4cebf71ba98eeadabe20bace016020526040902090565b606090600319011261099557600435906001600160a01b03906024358281168103610995579160443590811681036109955790565b34610995576020366003190112610995576020610438600435613ece565b60ff60035460a01c166132e6576132e3613d31565b90565b6040516370a0823160e01b81523060048201526020816024817f00000000000000000000000000000000000000000000000000000000000000006001600160a01b03165afa908115612cd6575f9161333c575090565b90506020813d602011613363575b8161335760209383613207565b81010312610995575190565b3d915061334a565b90600182811c92168015613399575b602083101461338557565b634e487b7160e01b5f52602260045260245ffd5b91607f169161337a565b91908203918211612e7b57565b81810292918115918404141715612e7b57565b81156133cd570490565b634e487b7160e01b5f52601260045260245ffd5b91908201809211612e7b57565b90816020910312610995575180151581036109955790565b6003549060ff8260a01c1661371d5761341d6132ce565b60025481111561350c57613436919250600254906133a3565b6105dc90818102918183041490151715612e7b57600554906127109004818082111561350357613465916133a3565b905b8115806134fb575b6111025761347c916133e1565b61348581613ece565b8061348e575050565b5f80516020614d0f833981519152547f83db9dc084973306ecd0b0f10cb495b81dd9ddcc135eb7934d2723bcabc8f4c39260209290916001600160a01b03166134d78282614914565b5f52600683526134ec60405f209182546133e1565b90555f600555604051908152a1565b50801561346f565b50505f90613467565b50600554918261351b57509050565b5f60055560408051631a4ca37b60e21b81526001600160a01b039283166004820152602481019490945230604485015290926020918282806064810103815f897f0000000000000000000000000000000000000000000000000000000000000000165af191821561368b575f926136ec575b508261361195838160035416907f00000000000000000000000000000000000000000000000000000000000000009183831614806136e3575b613695575b50505f80516020614d0f83398151915254835163a9059cbb60e01b81529082166001600160a01b03166004820152602481018590529687919082905f9082906044820190565b03927f0000000000000000000000000000000000000000000000000000000000000000165af194851561368b577f83db9dc084973306ecd0b0f10cb495b81dd9ddcc135eb7934d2723bcabc8f4c3949561366e575b5051908152a1565b61368490843d8611610917576109088183613207565b505f613666565b50513d5f823e3d90fd5b6136db9295507f00000000000000000000000000000000000000000000000000000000000000006136c7828285614145565b9187835116918688850151940151946145fd565b925f806135cb565b508015156135c6565b9491508285813d8311613716575b6137048183613207565b8101031261099557935190938261358d565b503d6136fa565b60405162461bcd60e51b815260206004820152602260248201527f43616e6e6f7420636c61696d20616c6c2066656573207768696c652070617573604482015261195960f21b6064820152608490fd5b61377561392b565b50505090156137c0575060019060405161378e816131d1565b601e81527f526562616c616e63696e6720617070656172732070726f66697461626c6500006020820152905f90600590565b5f918290600590565b156137d057565b60405162461bcd60e51b815260206004820152601060248201526f24b73b30b634b2103932b1b2b4bb32b960811b6044820152606490fd5b6001600160a01b03165f9081525f80516020614ccf833981519152602052604090205490565b51906001600160801b038216820361099557565b51906001600160a01b038216820361099557565b90816101e0910312610995578051916138716020830161382e565b9161387e6040820161382e565b9161388b6060830161382e565b916138986080820161382e565b916138a560a0830161382e565b9160c081015164ffffffffff81168103610995579160e082015161ffff8116810361099557916138d86101008201613842565b916138e66101208301613842565b916138f46101408201613842565b916139026101608301613842565b91613910610180820161382e565b916132e36101c06139246101a0850161382e565b930161382e565b6003549060ff8260a01c16613c65576001600160a01b039182167f00000000000000000000000000000000000000000000000000000000000000008084168203613c5f57507f0000000000000000000000000000000000000000000000000000000000000000905b837f000000000000000000000000000000000000000000000000000000000000000016906040948551916335ea6a7560e01b9081845260048401526101e0918284602481885afa5f9481613c31575b50613a2c575050505050505f91516139f9816131d1565b602081527f4661696c656420746f206765742063757272656e7420617373657420646174616020820152905f905f905f90565b60248392895196879384928352891660048301525afa9283915f94613bf3575b5050613aa1575050505f91636461746160e01b815191613a6b836131ec565b602483527f4661696c656420746f2067657420616c7465726e6174697665206173736574206020840152820152905f905f905f90565b919290916127106001600160801b039182168181029290801590840483141715612e7b576b033b2e3c9fd0803ce80000008093049416818102918183041490151715612e7b57049082821115613ba1576064613afd84846133a3565b10613b3f5760019451613b0f816131d1565b601f81527f526562616c616e63696e6720776f756c642062652070726f66697461626c6500602082015293929190565b5f947f6f766572207377617020636f73747320616e6420736c69707061676500000000815191613b6e836131ec565b603c83527f41505920646966666572656e636520696e73756666696369656e7420746f2063602084015282015293929190565b92505f936920657175616c2041505960b01b815191613bbf836131ec565b602a83527f43757272656e7420616c6c6f636174696f6e2068617320626574746572206f726020840152820152925f929190565b613c13929450803d10613c2a575b613c0b8183613207565b810190613856565b505050505050505050505050915050915f80613a4c565b503d613c01565b613c49919550843d8611613c2a57613c0b8183613207565b505050505050505050505050915050935f6139e2565b90613993565b6040515f9250613c74816131d1565b601281527110dbdb9d1c9858dd081a5cc81c185d5cd95960721b6020820152905f905f905f90565b6001600160a01b03908116908115613cf5575f80516020614d0f83398151915280546001600160a01b031981168417909155167f8be0079c531659141344cd1fd0a4f28419497f9722a3daafe3b4186f6b6457e05f80a3565b604051631e4fbdf760e01b81525f6004820152602490fd5b60405190613d1a8261319b565b5f6060838281528260208201528160408201520152565b6003546040516335ea6a7560e01b81526001600160a01b0391821660048201526101e0919082816024817f000000000000000000000000000000000000000000000000000000000000000086165afa908115612cd6575f935f92613e23575b5050602090602460405180948193630ed1279f60e11b8352306004840152165afa908115612cd6575f91613de5575b50613de1906001600160801b036b033b2e3c9fd0803ce80000009316906133b0565b0490565b90506020813d602011613e1b575b81613e0060209383613207565b8101031261099557516b033b2e3c9fd0803ce8000000613dbf565b3d9150613df3565b60209450613e3d9250803d10613c2a57613c0b8183613207565b50505050505099975050505050505092905f613d90565b5f80516020614d2f833981519152548015613e7b576132e391613e756132ce565b90614a42565b5090565b5f80516020614d2f833981519152548015613e7b576132e391613ea06132ce565b90614a90565b5f80516020614d2f833981519152548015613e7b57906132e391613ec86132ce565b91614a42565b5f80516020614d2f833981519152548015613e7b57906132e391613ef06132ce565b91614a90565b613eff81613243565b9060018060a01b0380841692835f5260205260405f2054935f198510613f28575b505050505050565b858510613f5d5750811615612f9a578115612f8257613f4690613243565b905f526020520360405f20555f8080808080613f20565b604051637dc7a0d960e11b81526001600160a01b039190911660048201526024810185905260448101869052606490fd5b916001600160a01b0380841692831561405f571692831561404757825f525f80516020614ccf8339815191528060205260405f205491838310614014575091806020927fddf252ad1be2c89b69c2b068fc378daa952ba7f163c4a11628f55a4df523b3ef94865f5284520360405f2055845f5260405f20818154019055604051908152a3565b60405163391434e360e21b81526001600160a01b0391909116600482015260248101929092525060448101829052606490fd5b60405163ec442f0560e01b81525f6004820152602490fd5b604051634b637e8f60e11b81525f6004820152602490fd5b5f80516020614d0f833981519152546001600160a01b0316330361409757565b60405163118cdaa760e01b8152336004820152602490fd5b5f80516020614daf83398151915260028154146140cc5760029055565b604051633ee5aeb560e01b8152600490fd5b9060048110156140ef5760051b0190565b634e487b7160e01b5f52603260045260245ffd5b919082608091031261099557815160208301519092906001600160a01b03811681036109955791604082015163ffffffff811681036109955760609092015190565b929061414f613d0d565b9383156145b8575f90604051926141658461319b565b606484526101f46020850152610bb8604085015261271060608501525f5b6004808210156143305762ffffff61419b83886140de565b5116604051906141aa826131b6565b6001600160a01b038681168352858116602080850191825260408086018e815260608088019687525f6080808a019182528451636352813560e11b8152995188169a8a019a8b5295518716948a0194909452905191880191909152935162ffffff16938601939093529151169281019290925290808260a4815f7f00000000000000000000000000000000000000000000000000000000000000006001600160a01b03165af19182915f936142fe575b505061426a575b50600101614183565b8481111561426157909750925060018362ffffff6142888a886140de565b5116604051906020820152602081526142a0816131d1565b62ffffff6142ae8b896140de565b511690604051926142be8461319b565b848060a01b037f00000000000000000000000000000000000000000000000000000000000000001684526020840152604083015260608201529790614261565b61431e929350803d10614329575b6143168183613207565b810190614103565b505050905f8061425a565b503d61430c565b505060405193506143408461319b565b606484526101f460208501526109c46040850152610bb860608501525f5b6004808210156144fb5762ffffff61437683886140de565b511660405190614385826131b6565b6001600160a01b038681168352858116602080850191825260408086018e815260608088019687525f6080808a019182528451636352813560e11b8152995188169a8a019a8b5295518716948a0194909452905191880191909152935162ffffff16938601939093529151169281019290925290808260a4815f7f00000000000000000000000000000000000000000000000000000000000000006001600160a01b03165af19182915f936144d9575b5050614445575b5060010161435e565b8481111561443c57909750925060018362ffffff6144638a886140de565b51166040519060208201526020815261447b816131d1565b62ffffff6144898b896140de565b511690604051926144998461319b565b848060a01b037f0000000000000000000000000000000000000000000000000000000000000000168452602084015260408301526060820152979061443c565b6144f0929350803d10614329576143168183613207565b505050905f80614435565b5050505091929050811561457c5761270b80820291820403612e7b5761271090041161452357565b60405162461bcd60e51b815260206004820152602b60248201527f526f75746520736c69707061676520746f6f206869676820666f72207374616260448201526a06c65636f696e20737761760ac1b6064820152608490fd5b60405162461bcd60e51b8152602060048201526014602482015273139bc81d985b1a59081c9bdd5d1948199bdd5b9960621b6044820152606490fd5b60405162461bcd60e51b815260206004820152601860248201527f43616e6e6f7420726f757465207a65726f20616d6f756e7400000000000000006044820152606490fd5b90939492919261270690818102918183041490151715612e7b57612710900491858051602097889181010312610995578601519262ffffff91828516809503610995576001600160a01b039081169690937f000000000000000000000000000000000000000000000000000000000000000085169188830361478b576040519360e08501958587106001600160401b03881117613187578780948d9860405216865283878701931683528360408701918a8352606088019030825260808901938d855260a08a019586528360c08b01975f89526040519d8e9c8d6304e45aaf60e01b9052511660048d0152511660248b015251166044890152511660648701525160848601525160a4850152511660c4830152815a60e4925f91f1908115612cd6575f9161474f575b50905f80516020614d4f83398151915292606092955b604051928352820152846040820152a290565b9190508482813d8311614784575b6147678183613207565b810103126109955790515f80516020614d4f833981519152614726565b503d61475d565b9150928492947f000000000000000000000000000000000000000000000000000000000000000016918289145f146148de5761012c420195864211612e7b57604051966101008801908882106001600160401b0383111761318757868095818f9a8e95604052168b52818a8c019616865260408b01908c825260608c019130835260808d0194855260a08d01958652838d60c0810198895260e001985f8a526040519e8f9d8e9163414bf38960e01b835251169060040152511660248c0152511660448a0152511660648801525160848701525160a48601525160c4850152511660e4830152815a610104925f91f1908115612cd6575f916148a2575b50905f80516020614d4f833981519152926060929561473c565b9190508482813d83116148d7575b6148ba8183613207565b810103126109955790515f80516020614d4f833981519152614888565b503d6148b0565b60405162461bcd60e51b8152600481018b9052600e60248201526d24b73b30b634b2103937baba32b960911b6044820152606490fd5b6001600160a01b0316908115614047577fddf252ad1be2c89b69c2b068fc378daa952ba7f163c4a11628f55a4df523b3ef60205f925f80516020614d2f8339815191526149628282546133e1565b90558484525f80516020614ccf833981519152825260408420818154019055604051908152a3565b91906001600160a01b03831690811561405f57815f525f80516020614ccf8339815191528060205260405f205494828610614a115750817fddf252ad1be2c89b69c2b068fc378daa952ba7f163c4a11628f55a4df523b3ef925f959660209386885284520360408620555f80516020614d2f833981519152818154039055604051908152a3565b60405163391434e360e21b81526001600160a01b039190911660048201526024810186905260448101839052606490fd5b91614a4e818385614a90565b9181156133cd576132e393091515906133e1565b60ff5f80516020614dcf8339815191525460401c1615614a7e57565b604051631afcd79f60e31b8152600490fd5b90915f198383099280830292838086109503948086039514614b1c5784831115614b045790829109815f038216809204600280826003021880830282030280830282030280830282030280830282030280830282030280920290030293600183805f03040190848311900302920304170290565b82634e487b715f52156003026011186020526024601cfd5b5050906132e392506133c3565b3d15614b53573d90614b3a82613228565b91614b486040519384613207565b82523d5f602084013e565b606090565b5f8091604051602081019063313ce56760e01b825260048152614b7a816131d1565b51916001600160a01b03165afa614b8f614b29565b9080614bc5575b614ba2575b505f905f90565b602081805181010312610995576020015160ff8111614b9b579060ff6001921690565b50602081511015614b96565b905f602091828151910182855af115612cd6575f513d614c2257506001600160a01b0381163b155b614c005750565b604051635274afe760e01b81526001600160a01b039091166004820152602490fd5b60011415614bf9565b90614c525750805115614c4057602081519101fd5b60405163d6bda27560e01b8152600490fd5b81511580614c85575b614c63575090565b604051639996b31560e01b81526001600160a01b039091166004820152602490fd5b50803b15614c5b56fe2ae08a8e29253f69ac5d979a101956ab8f8d9d7ded63fa7a83b16fc47648eab052c63247e1f47db19d5ce0460030c497f067ca4cebf71ba98eeadabe20bace0352c63247e1f47db19d5ce0460030c497f067ca4cebf71ba98eeadabe20bace0052c63247e1f47db19d5ce0460030c497f067ca4cebf71ba98eeadabe20bace049016d09d72d40fdae2fd8ceac6b6234c7706214fd39c1cd1e609a0528c19930052c63247e1f47db19d5ce0460030c497f067ca4cebf71ba98eeadabe20bace02cf5d8414609aaf0c96c1270830fbee1b007f5148064b7dd19aa9cf9215307a860773e532dfede91f04b12a73d3d2acd361424f41f76b4fb79f090161e36b4e0046a2803e59a4de4e7a4c574b1243f25977ac4c77d5a1a4a609b5394cebb4a2aa9b779b17422d0df92223018b32b4d1fa46e071723d6817e2486d003becc55f00f0c57e16840df040f15088dc2f81fe391c3923bec73e23a9662efc9c229c6a00a26469706673582212201cc824d0cc0e7ebea696af48f64bd70be89707bfed71ade18ce3267e06b3176264736f6c63430008180033","linkReferences":{}},"methodIdentifiers":{"UPGRADE_INTERFACE_VERSION()":"ad3cb1cc","USDC()":"89a30271","USDT()":"c54e44eb","allowance(address,address)":"dd62ed3e","approve(address,uint256)":"095ea7b3","asset()":"38d52e0f","balanceOf(address)":"70a08231","canRebalance()":"a06880c0","checkRebalancingProfitability()":"54859ef5","claimAllPerformanceFees()":"2bf9decf","claimPerformanceFees()":"afd458bc","convertToAssets(uint256)":"07a2d13a","convertToShares(uint256)":"c6e6f592","currentAllocation()":"345210dd","decimals()":"313ce567","deposit(uint256,address)":"6e553f65","emergencyPause()":"51858e27","feeShares(address)":"ee3e7b10","getBestSwapRoute(address,address,uint256)":"f3a66b12","getClaimableFees()":"274f0e24","iguanaQuoter()":"42d9a69c","iguanaRouter()":"98462246","initialize()":"8129fc1c","lastWithdrawalTime(address)":"4de5120e","maxDeposit(address)":"402d267d","maxMint(address)":"c63d75b6","maxRedeem(address)":"d905777e","maxWithdraw(address)":"ce96cb77","mint(uint256,address)":"94bf804d","name()":"06fdde03","owner()":"8da5cb5b","pause()":"8456cb59","paused()":"5c975abb","previewDeposit(uint256)":"ef8b30f7","previewMint(uint256)":"b3d7f6b9","previewRedeem(uint256)":"4cdad506","previewWithdraw(uint256)":"0a28a477","proxiableUUID()":"52d1902d","rebalance()":"7d7c2a1c","redeem(uint256,address,address)":"ba087652","renounceOwnership()":"715018a6","setTvlCap(uint256)":"dd0290e2","superlendPool()":"c0b10b79","symbol()":"95d89b41","totalAssets()":"01e1d114","totalPerformanceFeesEarned()":"4e7367a4","totalPrincipal()":"4b1533b2","totalSupply()":"18160ddd","transfer(address,uint256)":"a9059cbb","transferFrom(address,address,uint256)":"23b872dd","transferOwnership(address)":"f2fde38b","tvlCap()":"3f23fa1a","uniswapQuoter()":"4db4a352","uniswapRouter()":"735de9f7","unpause()":"3f4ba83a","upgradeToAndCall(address,bytes)":"4f1ef286","userDepositTime(address)":"cf27e06f","userPrincipal(address)":"62dab626","withdraw(uint256,address,address)":"b460af94"},"id":44}